:020000040800F2
:1000000000000220D5550008E5530008E75300081A
:10001000E9530008EB530008ED530008000000000E
:10002000000000000000000000000000EF53000886
:10003000F153000800000000F3530008F5530008D6
:1000400025560008255600082556000825560008A4
:100050002556000825560008255600082556000894
:1000600025560008255600082556000801540008AA
:100070002556000825560008255600082556000874
:100080002556000825560008255600082556000864
:100090002556000825560008255600082556000854
:1000A0002556000825560008255600082556000844
:1000B0002556000825560008255600082556000834
:1000C000255600082556000825560008115400083A
:1000D0002556000825560008255600082556000814
:1000E0002556000825560008000000002556000887
:1000F00025560008255600082556000825560008F4
:1001000025560008255600082556000825560008E3
:1001100025560008255600082556000825560008D3
:1001200025560008255600082556000825560008C3
:1001300025560008255600082556000825560008B3
:1001400000000000000000000000000000000000AF
:100150002556000825560008255600082556000893
:100160002556000825560008255600082556000883
:1001700025560008255600082556000800000000F6
:100180002556000825560008255600082556000863
:100190002556000825560008255600082556000853
:1001A0002556000825560008255600082556000843
:1001B0002556000825560008255600082556000833
:1001C0002556000825560008255600082556000823
:1001D0002556000825560008255600082556000813
:1001E0002556000825560008255600082556000803
:1001F00025560008255600082556000825560008F3
:1002000025560008255600082556000825560008E2
:1002100025560008255600082556000825560008D2
:100220002556000825560008255600080000000045
:100230002556000825560008000000002556000835
:1002400025560008255600082556000825560008A2
:100250002556000825560008255600082556000892
:100260002556000825560008255600082556000882
:1002700025560008255600082556000800000000F5
:100280002556000800000000255600080000000068
:080290000000000025560008E3
:1002980010B5054C237833B9044B13B10448AFF3B8
:1002A80000800123237010BD3C01002000000000E5
:1002B8008457000808B5034B1BB103490348AFF343
:1002C800008008BD0000000040010020845700089D
:1002D80053B94AB9002908BF00281CBF4FF0FF31A5
:1002E8004FF0FF3000F072B9ADF1080C6DE904CEA3
:1002F80000F006F8DDF804E0DDE9022304B07047F9
:100308002DE9F047089E04468846002B4BD18A42C7
:10031800154667D9B2FA82F24AB1C2F1200701FA4A
:1003280002F320FA07F7954047EA030894404FEA9A
:10033800154E230CB8FBFEF71FFA85FC0EFB178839
:1003480043EA084307FB0CF1994209D9EB1807F176
:10035800FF3080F01B81994240F21881023F2B4404
:100368005B1AA4B2B3FBFEF00EFB103344EA03445D
:1003780000FB0CFCA44509D92C1900F1FF3380F0CF
:100388000781A44540F2048102382C4440EA074022
:10039800A4EB0C0400271EB1D4400023C6E9004397
:1003A8003946BDE8F0878B4209D9002E00F0EB8072
:1003B8000027C6E9000138463946BDE8F087B3FA98
:1003C80083F7002F47D18B4202D3824200F2FA8092
:1003D800841A61EB030301209846002EE0D0C6E999
:1003E8000048DDE702B9FFDEB2FA82F2002A40F0E7
:1003F8008F80491B4FEA154E1FFA85F80127B1FB7C
:10040800FEFC230C0EFB1C1143EA014308FB0CF114
:10041800994207D9EB180CF1FF3002D2994200F249
:10042800CD808446591AA3B2B1FBFEF00EFB10141E
:1004380043EA044408FB00F8A04507D92C1900F149
:10044800FF3302D2A04500F2B6801846A4EB080498
:1004580040EA0C409FE7C7F1200CBB4022FA0CFE93
:100468004EEA030E01FA07F420FA0CF521FA0CF310
:100478004FEA1E482543B3FBF8F92C0C08FB193347
:100488001FFA8EFA44EA034309FB0AF49C4202FA73
:1004980007F200FA07F10BD91EEB030309F1FF304D
:1004A80080F087809C4240F28480A9F1020973445D
:1004B8001B1BADB2B3FBF8F008FB103345EA03444D
:1004C80000FB0AFAA24508D91EEB040400F1FF3329
:1004D8006BD2A24569D90238744440EA0940A0FBAE
:1004E8000289A4EB0A044C45C2464B4654D351D06A
:1004F800002E69D0B1EB0A0564EB030404FA0CFC86
:10050800FD40FC404CEA0505C6E90054002747E7D2
:10051800C2F1200320FA03F7954001FA02F021FA0C
:1005280003F34FEA154E3843010CB3FBFEF71FFAED
:1005380085F80EFB173341EA034107FB08F38B42AA
:1005480004FA02F407D9691807F1FF3C2FD28B424D
:100558002DD9023F2944CB1A81B2B3FBFEF00EFB22
:10056800103341EA034100FB08F38B4207D96918AD
:1005780000F1FF3C17D28B4215D902382944C91A19
:1005880040EA07473BE73746304609E70746E7E6CC
:100598001846FBE64145ABD2B8EB020A69EB0E02FE
:1005A80001381346A4E76046E9E7184695E7674629
:1005B800D1E781467CE702382C4447E7ACF1020CCE
:1005C8002B442FE7384608E73746E9E6704700BF6F
:1005D80010B504460E4B18784FF47A73B3FBF0F35A
:1005E8000C4A1068B0FBF3F000F0A8F868B90F2CBB
:1005F80001D9012010BD002221464FF0FF3000F044
:100608005FF8054B1C60002010BD012010BD00BF25
:1006180000000020100000200400002010B5032076
:1006280000F03CF80020FFF7D3FF10B1012420466A
:1006380010BD044604F090FEF9E70000034B1B7858
:10064800034A11680B441360704700BF0000002084
:1006580058010020014B1868704700BF580100205E
:1006680038B50446FFF7F6FF0546B4F1FF3F02D060
:10067800044B1B781C44FFF7EDFF401B8442FAD85B
:1006880038BD00BF00000020034A536823F460030C
:1006980018435060704700BF000400580649CB68F3
:1006A80023F4E0631B041B0C000200F4E060034326
:1006B800024A1A43CA60704700ED00E00000FA05DC
:1006C80030B4144BDB68C3F30223C3F10704042CD2
:1006D80028BF04241D1D062D13D9033B012505FA47
:1006E80004F4013C2140994005FA03F3013B13400F
:1006F8001943002807DB0901C9B2074B195430BC5C
:1007080070470023EAE700F00F000901C9B2034B64
:100718001954F4E700ED00E000E400E014ED00E017
:10072800002808DB420900F01F00012303FA00F04B
:10073800014B43F82200704700E100E00138B0F1B6
:10074800807F0AD2064B5860F021064A82F82310AF
:100758000020986007221A6070470120704700BF88
:1007680010E000E000ED00E0042805D0054A136819
:1007780023F0040313607047024A136843F004032C
:100788001360704710E000E0704708B5FFF7FCFF02
:1007980008BD0000F0B4866D446E856E6560C46E59
:1007A80014B1046F456F656005681C4C2C44B4F5A2
:1007B800956F18D8C56D3F24AC40B46005682C68A7
:1007C80024F480242C60046863608368402B05D07F
:1007D800036899600368DA60F0BC704703689A6040
:1007E8000368D960F8E70E4C2C448C2CF4D80D4ED5
:1007F8007468C76D0125BD402C437460046863604C
:100808008368402B04D0036899600368DA60E3E7E3
:1008180003689A600368D960DEE700BFF0FFFDBF98
:10082800F8ABFDA7005402580268D3B2103B09493F
:10083800A1FB03131B090849C95CC165032B04D834
:10084800064B13408365806D7047044B1340043397
:100858008365F8E7ABAAAAAA9C57000800FCFFFF2B
:1008680083699BB9836A012B0AD01BB1022B01D083
:1008780000207047C36A13F0807F2ED10020704794
:10088800C36AB3F1C07F2AD000207047B3F5005F78
:1008980006D0836A022B2AD9032B16D00020704772
:1008A800836A032B03D8DFE803F01C041C0A00202A
:1008B8007047C36A13F0807F15D100207047C36A60
:1008C800B3F1C07F11D000207047C36A13F0807F56
:1008D80001D0012070470020704701207047012097
:1008E80070470120704701207047012070470120A0
:1008F800704700000368154A1A448C2A15D9DAB2E1
:10090800103A1349A1FB0212120912491944A829E5
:1009180000D80832104B13449B0003660F4B436604
:10092800012303FA02F282667047DBB2083B0C4AE5
:10093800A2FB03231B090B4A1A44920002660A4AC7
:100948004266012202FA03F383667047F8ABFDA7FB
:10095800ABAAAAAAF0FBFDBF0082001080080240E3
:10096800CDCCCCCC009600168058025810B4046840
:100978000279531E072B0DD80B4921448C290CD81A
:100988000A4911448900C166094A0267012202FA2C
:1009980003F343675DF8044B704706491144890027
:1009A800C166054A0267F1E7F8ABFDA73F96001656
:1009B800405902583F8200104009024070B5044671
:1009C800FFF748FE002C00F0C28005462268614B04
:1009D8001344B3F5956F55D8002384F834300223B7
:1009E80084F83530136823F00103136023681A680C
:1009F80012F0010F0BD0FFF72DFE401B0528F5D98B
:100A080020236365032384F83530012070BD1A68FC
:100A180051491140A268E0680243206902436069B5
:100A28000243A0690243E0690243206A02430A4381
:100A3800616A042911D01A602668756925F00705CE
:100A4800636A1D43042B0DD075612046FFF7ECFE49
:100A5800E26D3F239340836046E0E16A206B0143E7
:100A68000A43E8E7A36A1D43E36A002BECD020465B
:100A7800FFF7F6FE0028E7D040236365012084F8DD
:100A8800350070BD354B13448C2B4CD8002384F8AB
:100A98003430022384F83530136831491940A3688B
:100AA800402B3ED0802B39D00023E06843EAD003A6
:100AB800206943EAD003606943EAD003A06943EAA6
:100AC800D003E069C00800F020000343206A43EA2D
:100AD80010130B4313602268204B1344214AA2FBD6
:100AE80003231B099B00E3652046FFF703FFA36868
:100AF800802B1FD0236E22791A60636EA26E5A6013
:100B08006368013B072B18D90023E36623676367F3
:100B180000206065012384F8353070BD4FF48043B0
:100B2800C3E71023C1E740236365032384F8353006
:100B3800012070BD00236360DCE72046FFF716FF45
:100B4800E36E00221A60236F626F5A60E0E70120AB
:100B580070BD00BFF0FFFDBF3F8010FEF8ABFDA7E2
:100B68000F80FFFFCDCCCCCC002874D038B504461C
:100B780090F83400012870D0012084F8340094F8EB
:100B88003500C0B2012807D0002384F834304FF470
:100B980000636365012038BD022084F83500002019
:100BA800606520682E4D0544B5F5956F39D8056800
:100BB80025F0010505602046FFF7ECFD2368284A6B
:100BC8001A44B2F5956F31D81A6822F01E0242F025
:100BD80016021A602268536943F080035361236C3C
:100BE80023B12268136843F008031360236E1A6860
:100BF80012F4803F03D01A6842F480721A60E36EE0
:100C08001BB11A6842F480721A602368144A1A44A5
:100C1800B2F5956F19D81A6842F001021A600020DF
:100C280038BD056825F001050560C4E71A6822F09B
:100C38000E0242F00A021A60236C002BD6D02268FA
:100C4800136843F004031360D0E71A6842F0010206
:100C58001A60002038BD01207047022038BD00BF4F
:100C6800F0FFFDBF00284ED008B5034690F83520A8
:100C7800D2B2022A03D080224265012008BD026850
:100C880023491144B1F5956F2FD9116821F00E0150
:100C9800116001681E4A0A44B2F5956F2ED80A6899
:100CA80022F001020A60196E0A6822F480720A6052
:100CB800D96D01228A4017494A605A6E996E51606F
:100CC800DA6E32B1116821F4807111601A6F596FB0
:100CD8005160002283F83420012283F835201A6DF0
:100CE8009AB118469047002008BD042180F83510B5
:100CF800136823F001031360002008BD0A6822F07E
:100D080001020A60CFE701207047002008BD00BF3C
:100D1800F0FFFDBF00540258F0B583B0044600232D
:100D28000193904B1D68904BA3FB0535876D3E687A
:100D380002688E4B1344B3F5956F00F21D81AD0A1E
:100D4800C16D08238B401E420FD0136813F0040FA7
:100D58000BD0136823F004031360C26D082393407B
:100D6800BB60436D43F001034365E26D804B9340E4
:100D78001E420ED021687D4A0A44B2F5956F3AD8D2
:100D88004A69C2F3C01222B1BB60636D43F002032B
:100D98006365E26D774B93401E420ED02168734A1B
:100DA8000A44B2F5956F29D80A68C2F3400222B105
:100DB800BB60636D43F004036365E26D10239340E9
:100DC8001E4233D02168694A0A44B2F5956F18D893
:100DD8000A68C2F3C0024AB3BB6023681A6812F4F7
:100DE800802F17D01B6813F4002F0ED1236CEBB1A2
:100DF800204698471AE00A680022C4E70A680022D9
:100E0800D5E70A68C2F38002E5E7A36C73B1204610
:100E180098470BE01A6812F4807F03D11A6822F011
:100E280008021A60236C0BB120469847E26D202314
:100E380093401E425FD021684C4A0A44B2F5956F30
:100E480019D80A68C2F30012002A54D0BB6094F87B
:100E58003530DBB2042B12D023681A6812F4802FC5
:100E680037D01B6813F4002F2ED1636C002B42D0AF
:100E7800204698473FE00A68C2F34002E4E7226848
:100E8800136823F0160313602268536923F0800364
:100E98005361236CA3B12268136823F0080313601D
:100EA800E26D3F239340BB60002384F83430012374
:100EB80084F83530236D002B49D02046984746E00A
:100EC800A36C002BE7D1EBE7E36BA3B1204698476F
:100ED80011E01A6812F4807F09D11A6822F0100212
:100EE8001A60002384F83430012384F83530E36B2A
:100EF8000BB120469847636D4BB3636D13F0010F38
:100F080021D0042384F835302368184A1A44B2F5EE
:100F1800956F1ED81A6822F001021A60019B0133EE
:100F280001939D4204D323681B6813F0010FF5D188
:100F3800002384F8343023681B6813F0010F0DD0A8
:100F4800032384F83530E36C0BB12046984703B08F
:100F5800F0BD1A6822F001021A60DFE7012384F865
:100F68003530F0E710000020B5814E1BF0FFFDBFC3
:100F78000100800004008000354B13448C2BE6D818
:100F8800344B1868E16D04238B40184218D013685D
:100F980013F0040F14D0136813F0200F03D1136853
:100FA80023F0040313602B494B68E06D0422824050
:100FB80013434B60236C002BC9D020469847C6E7E3
:100FC800244B186802238B4018421ED0136813F074
:100FD800020F1AD0136813F0200F09D1136823F0F9
:100FE8000A031360002384F83430012384F8353071
:100FF80018494B68E06D0222824013434B60E36B53
:10100800002BA4D020469847A1E7124B1868082364
:1010180003FA01F108429AD0136813F0080F96D02A
:10102800136823F00E0313600A484268E16D012338
:1010380003FA01F10A4342606365002284F8342010
:1010480084F83530E36C002B81D0204698477EE742
:10105800F8ABFDA700540258406D704730B48B6858
:101068000A6813430A7943EAC2630A7B43EAC25314
:101078004A7B43EA82538A7B43EA4253CA7B43EA68
:1010880002530A7C002A40F0B0804FF400221A4331
:101098004B7C002B40F0AB804FF4003313438A7C29
:1010A80043EA02434A6913438A6913430A7F43EABE
:1010B80002334A7F43EAC2238A7F002A40F099809C
:1010C8004FF480621343CA7F43EA422291F82030EA
:1010D800002B40F090804FF4807313434A6A134307
:1010E80091F8282043EA0213CA6A13430468226865
:1010F80022F07F4222F47B0222F4FE4222F07C029C
:1011080013432360CA6B91F838301B0643EA4263E5
:1011180091F8302043EA824391F8312043EA424370
:1011280091F83220002A68D14FF4803213434A6B79
:1011380013430468626822F07C5222F4EF2222F4FE
:10114800FF6222F007021343636091F840204B6C62
:1011580043EA02230468E5682B4A2A401343E36004
:1011680091F854200B6D43EA420291F84C30002B61
:1011780045D1802313438A6C43EA02430468226FF3
:1011880022F0F2021204120C1343236791F856302E
:1011980091F8552043EA42030468D4F8902022F0DD
:1011A80003021343C4F890300268D2F8003D23F0DC
:1011B80072038C6D2343C2F8003DCA6D91F860300C
:1011C800FBB10023134391F8612043EA021391F81D
:1011D800622043EAC2030168D1F8302D22F07B0275
:1011E8001343C1F8303D30BC704700224FE700235D
:1011F80054E7002266E700236FE7002296E7002302
:10120800B8E74023DEE700BFF0FEFFFF70B40268D6
:1012180002F5805214681E4B23400C682343136068
:101228000A798B6843EA02330A7B43EAC2330568CA
:1012380041F204042E59174A324013432B514A7B7A
:101248000B6A43EA0243026802F588521568124C99
:101258002C40234313600B690A7D43EA02134A7F3B
:1012680043EA0233056841F204142E590B4A32400E
:1012780013432B510A7F8B6943EAC273006841F21A
:1012880008114458064A22401343435070BC704723
:10129800FD87FFFFFE2FFFFF00C0FEFFEFEFC0FF3F
:1012A800FFFFC07F70B5A2B0064601258DF8335008
:1012B800002412948DF841408DF843408DF8285051
:1012C8008DF856508DF832508DF84C408DF884507A
:1012D8004FF400530F938DF85C4018948DF88540B7
:1012E8008DF886404FF4C36316938DF830400B9405
:1012F8008DF835508DF836408DF840401D941B947C
:1013080014948DF864408DF87A408DF8425020236B
:1013180020938DF844508DF855404FF04053099371
:101328004FF480430E938DF8314002231F938DF8BC
:1013380078408DF879408DF854408DF834501A94DF
:101348008DF8705009A9FFF789FE8DF804500295B1
:1013580000948DF81C408DF80D408DF80C404FF42A
:10136800001306938DF8144004938DF81D404FF434
:101378000673089369463046FFF748FF22B070BDF0
:1013880030B4002119E0C56801EB4103DC002B19DA
:1013980000222A555A709A70DA701A715A719A7125
:1013A800DA711A725A729A72DA721A735A739A73D3
:1013B800DA738A1D40F8223001310329E3D900236A
:1013C80083620268032141F22C13D1500268C1687C
:1013D80041F21413D1500368C26803F589531A60A7
:1013E80030BC704730B4002123E0056901EB4103AC
:1013F800DC002B1900222A555A709A70DA701A717B
:101408005A719A71DA711A725A729A72DA721A7376
:101418005A739A73DA731A745A749A74DA741A7556
:101428005A759A75DA7501F10A0200EB8202536067
:1014380001310329D9D90023C36303644364C36416
:1014480083640268032141F23013D15002680169B4
:1014580041F21C13D15001680369483341F2281244
:101468008B5030BC7047000038B505460368D3F888
:10147800004224F4706400F011FF114B0344114A38
:10148800934211D9104B0344104A934212D9104B7E
:101498000344104A934209D90F4B03440F4A93421D
:1014A8000BD944F4806401E044F400742B68C3F859
:1014B800004238BD44F44074F8E744F48074F5E71A
:1014C80000D3CEFEBFE1E40040F1E9FD3F787D01A5
:1014D80000796CFCFF596202001F0AFA7FF0FA02D9
:1014E800002800F0928030B583B0044690F851305F
:1014F8009BB3232384F85130454BD3F8F42042F0B2
:101508000202C3F8F420D3F8F43003F00203019385
:10151800019B237A23BB0020FFF7B6F8236803F565
:1015280080531A6842F001021A60FFF793F80546E3
:10153800236803F580531B6813F0010F15D0FFF7DC
:1015480089F8401BB0F5FA7FF2D904236365E023DC
:1015580084F85130012003B030BD03F007FCC8E720
:101568004FF40000FFF790F8D8E72046FFF77CFF1C
:10157800256800F093FE274BA3FB00239B0C013B3F
:10158800C5F8DC302046FFF78DFE226802F5885248
:10159800136823F4E01343F400231360636913F022
:1015A800030F05D001206065E02384F85130D2E7AD
:1015B800206841F208114558174A2A4042EA430375
:1015C80043502046FFF7DCFE2046FFF70BFF21685B
:1015D80062685079137943EA0023C1F8003321681F
:1015E8006268D07893781B0443EA0063507843EA32
:1015F800002312781343C1F80433002060651023D8
:1016080084F8513084F85230A5E70120704700BFB4
:101618000044025883DE1B430180FFFFF0B583B00E
:1016280000243BE0092600E0002606FA0EF63243C5
:101638000233704E46F823206F4B1A68EB4302EAD8
:1016480003064F6817F4803F01D045EA02066A4A4C
:101658001660566803EA06024F6817F4003F01D087
:1016680045EA0602644E72604FF0B042126803EA1F
:1016780002064F6817F4801F01D045EA02064FF0B2
:10168800B0421660526813404E6816F4001F01D02D
:1016980045EA02034FF0B042536001340F2C00F2C8
:1016A800A6800123A3400A6803EA0205AB42F4D1ED
:1016B8004A68122A18BF022A12D14FEAD40E0EF134
:1016C800080E50F82E2004F00706B6000F27B74082
:1016D80022EA07020F6907FA06F6324340F82E207D
:1016E80006684FEA440E032202FA0EF2D24316406D
:1016F8004F6807F0030707FA0EF73E4306604E6887
:10170800771E112E18BF012F01D9122E0FD186680E
:101718001640CF6807FA0EF73E438660466826EA09
:1017280003034E68C6F30016A64033434360C368FC
:101738001A408B6803FA0EF31A43C2604B6813F021
:10174800805FAAD02D4BD3F8F42042F00202C3F8F0
:10175800F420D3F8F43003F002030193019BA308AB
:101768009E1C244A52F8262004F003064FEA860EEF
:101778000F2606FA0EF622EA0602214FB8423FF477
:1017880053AF204EB04222D006F58066B04220D03A
:1017980006F58066B0421ED006F58066B0421CD0C1
:1017A80006F58066B0421AD006F58066B04218D0B9
:1017B80006F58066B04216D006F58066B04214D0B1
:1017C80006F58066B0423FF42DAF0A262DE70126C4
:1017D8002BE7022629E7032627E7042625E705261F
:1017E80023E7062621E707261FE708261DE703B09B
:1017F800F0BD00BF000400588000005800440258A3
:1018080000000258000402580AB941837047018356
:101818007047002879D0F0B58BB00446032380F8D0
:10182800B93303F09FFE206802F098FF254655F86B
:10183800107B6E460FCD0FC60FCD0FC695E803007F
:1018480086E80300231D0ECB384602F049FF00212D
:10185800206802F089FF002210E0D100891A8B006D
:101868002344012183F8391083F83820DA870021CE
:1018780083F83B1019645964D96401320E2AECD9F3
:10188800002218E0D100891A8B002344002183F834
:10189800F91183F8F821DA8783F8FB11C3F80012ED
:1018A800C3F80412C3F80C12236802F1400003EBDA
:1018B8008003596001320E2AE4D9254655F8107B79
:1018C8006E460FCD0FC60FCD0FC695E8030086E80C
:1018D8000300231D0ECB384602F05CFF012384F879
:1018E800B933A36A012B08D0636A012B09D0206899
:1018F80003F02BF800200BB0F0BD204600F008F8EC
:10190800F2E7204600F018F8F1E7012070470000E0
:10191800024603680121C0F8F413002082F8EC03A2
:101928009A6942F000629A61596D024A0A435A65FF
:10193800704700BF0300001003680122C0F8F823B5
:101948009A6B42F400329A639A6B42F480229A634B
:101958000020704738B50446036813F0010F3BD0E8
:10196800AD4B1B6903F03803102B2CD0AA4B1B6915
:1019780003F03803182B20D06368B3F5803F55D0A7
:10198800002B59D1A44B1A6822F480321A601A68C5
:1019980022F480221A606368002B64D0FEF75AFE96
:1019A80005469D4B1B6813F4003F15D1FEF752FE08
:1019B800401B6428F5D9032038BD974B9B6A03F078
:1019C8000303022BD8D1944B1B6813F4003F03D0B8
:1019D8006368002B00F07482236813F0020F00F094
:1019E80084808D4B1B6913F0380F50D08A4B1B69CC
:1019F80003F03803182B45D0E368002B00F0AD80C6
:101A080085490A6822F0190213430B60FEF722FE8B
:101A18000546814B1B6813F0040F40F08E80FEF7DB
:101A280019FE401B0228F4D9032038BD7A4A1368EE
:101A380043F480331360AEE7B3F5A02F09D0764B9B
:101A48001A6822F480321A601A6822F480221A6016
:101A5800A1E7714B1A6842F480221A601A6842F4AE
:101A680080321A6097E7FEF7F5FD05466A4B1B685A
:101A780013F4003FB0D0FEF7EDFD401B6428F5D904
:101A8800032038BD644B9B6A13F0030FB4D1624B3B
:101A98001B6813F0040F03D0E368002B00F01282D8
:101AA8005D4A136823F01903E1680B431360FEF7DE
:101AB800D1FD0546584B1B6813F0040F06D1FEF7FD
:101AC800C9FD401B0228F5D9032038BD5248436898
:101AD80023F47C3321694FF47C3292FAA2F2B2FAF1
:101AE80082F201FA02F213434360236813F0100FE5
:101AF80066D0494B1B6903F03803082B47D0464B87
:101B08001B6903F03803182B3BD0E369002B00F066
:101B18008580414A136843F080031360FEF79AFDFD
:101B280005463D4B1B6813F4807F64D1FEF792FD98
:101B3800401B0228F5D9032038BD3748436823F4F1
:101B48007C3321694FF47C3292FAA2F2B2FA82F223
:101B580001FA02F213434360C7E72F4A136823F0E0
:101B680001031360FEF776FD05462B4B1B6813F047
:101B7800040FBAD0FEF76EFD401B0228F5D90320EA
:101B880038BD254B9B6A03F00303012BBDD1224BC3
:101B98001B6813F4807F04D0E369802B01D00120F7
:101BA80038BD1D48436823F0F843216A4FF0F842D6
:101BB80092FAA2F2B2FA82F201FA02F213434360F5
:101BC800236813F0080F51D06369002B3AD0124AEA
:101BD800536F43F001035367FEF73CFD05460E4B78
:101BE8005B6F13F0020F41D1FEF734FD401B022852
:101BF800F5D9032038BD0848436823F0F843216A23
:101C08004FF0F84292FAA2F2B2FA82F201FA02F224
:101C180013434360D4E700BF00440258AC4A13683A
:101C280023F080031360FEF715FD0546A84B1B68DB
:101C380013F4807FC4D0FEF70DFD401B0228F5D9B0
:101C4800032038BDA24A536F23F001035367FEF700
:101C580001FD05469E4B5B6F13F0020F06D0FEF7A1
:101C6800F9FC401B0228F5D9032038BD236813F07E
:101C7800200F29D0A3699BB1954A136843F4805378
:101C88001360FEF7E7FC0546914B1B6813F4005FF1
:101C98001AD1FEF7DFFC401B0228F5D9032038BD16
:101CA8008B4A136823F480531360FEF7D3FC054670
:101CB800874B1B6813F4005F06D0FEF7CBFC401B74
:101CC8000228F5D9032038BD236813F0040F21D169
:101CD800636A002B00F0F8807D4A126902F038022E
:101CE800182A00F0F380022B75D0794A136823F084
:101CF80080731360FEF7AEFC0446754B1B6813F047
:101D0800007F00F0DB80FEF7A5FC001B0228F4D959
:101D1800032038BD6F4A136843F480731360FEF7DD
:101D280099FC05466B4B1B6813F4807F06D1FEF7C0
:101D380091FC401B6428F5D9032038BDA368012B0A
:101D48001CD00BBB624B1A6F22F001021A671A6F84
:101D580022F004021A67A36863B3FEF77BFC05460A
:101D68005B4B1B6F13F0020FB2D1FEF773FC401BE5
:101D780041F288339842F3D9032038BD544A136F8F
:101D880043F001031367E6E7052B09D0504B1A6FA0
:101D980022F001021A671A6F22F004021A67DAE7C2
:101DA8004B4B1A6F42F004021A671A6F42F0010295
:101DB8001A67D0E7FEF74EFC0546454B1B6F13F03C
:101DC800020F85D0FEF746FC401B41F2883398424B
:101DD800F3D9032038BD3E4A136823F0807313609B
:101DE800FEF738FC05463A4B1B6813F0007F06D017
:101DF800FEF730FC401B0228F5D9032038BD344BD0
:101E0800996A354A0A40A16AE06A41EA00110A4320
:101E18009A62226B013AC2F30802616B01394902E6
:101E280089B20A43A16B0139090401F4FE010A438E
:101E3800E16B0139090601F0FE410A431A63596B47
:101E4800264A0A40A06C4FF6F87191FAA1F1B1FA4E
:101E580081F100FA01F10A435A63DA6A22F00C02AE
:101E6800216C0A43DA62DA6A22F00202616C0A43E0
:101E7800DA62DA6A42F48032DA62DA6A42F400320A
:101E8800DA62DA6A42F48022DA62DA6A42F001023D
:101E9800DA621A6842F080721A60FEF7DBFB0446C9
:101EA8000B4B1B6813F0007F06D1FEF7D3FB001B1A
:101EB8000228F5D9032038BD002038BD002038BDE0
:101EC800012038BD012038BD002038BD012038BDB3
:101ED80000440258004802580CFCFFFF0700FFFFAF
:101EE8006D4B1B6903F03803102B00F0D280182BC0
:101EF80010D00BB169487047674B1B6813F0200F6F
:101F080001D167487047644B1B68C3F3C103644839
:101F1800D8407047F0B4604DAC6A04F00304AF6A6F
:101F2800C7F30517EE6A06F001066B6BC3F3CC0323
:101F380003FB06F307EE903AF8EE677A012C60D0BF
:101F4800F4B1022C00F08980544BB3FBF7F307EE91
:101F5800103AB8EE477A504B1B6BC3F30803DFED1A
:101F6800516A67EEA67A06EE903AF8EE666A76EE61
:101F7800A77AF7EE006A77EEA67A27EE277A5BE073
:101F8800454B1B6813F0200F1FD0434A1368C3F357
:101F9800C1034348D840B0FBF7F307EE103AB8EE58
:101FA800477A136BC3F30803DFED3E6A67EEA67A40
:101FB80006EE903AF8EE666A76EEA77AF7EE006AD1
:101FC80077EEA67A27EE277A36E03548B0FBF7F3A6
:101FD80007EE103AB8EE477A2F4B1B6BC3F3080392
:101FE800DFED306A67EEA67A06EE903AF8EE666A9A
:101FF80076EEA77AF7EE006A77EEA67A27EE277ACA
:102008001AE02649B1FBF7F307EE103AB8EE477A23
:10201800214B1B6BC3F30803DFED226A67EEA67A38
:1020280006EE903AF8EE666A76EEA77AF7EE006A60
:1020380077EEA67A27EE277A174B1B6BC3F3462356
:10204800013307EE903AF8EE676AC7EE267AFCEE9F
:10205800E77A17EE900AF0BC7047134AB2FBF7F321
:1020680007EE103AB8EE477A0B4B1B6BC3F3080325
:10207800DFED0C6A67EEA67A06EE903AF8EE666A2D
:1020880076EEA77AF7EE006A77EEA67A27EE277A39
:10209800D2E70548704700BF0044025800093D00D8
:1020A8000090D0030000003900127A00774B1B68BB
:1020B80003F007038B420CD2744A136823F007031A
:1020C8000B431360136803F00703994201D0012002
:1020D800704770B5036813F0020F06D06C4A936915
:1020E80023F00F03C468234393610D460446036835
:1020F80013F0010F72D0664A936923F47063816804
:102108000B4393614368022B27D0032B2BD0012B61
:1021180030D05F4A126812F0040F00F0B5805C49B5
:102128000A6922F0070213430B61FEF793FA064689
:102138006368022B25D0032B32D0012B3FD0544BA0
:102148001B6913F0380F49D0FEF784FA801B41F25F
:1021580088339842F3D9032070BD126812F4003F07
:10216800DDD1012070BD4A4A126812F0007FD6D135
:10217800012070BD464A126812F4807FCFD1012039
:1021880070BD434B1B6903F03803102B26D0FEF7B4
:1021980061FA801B41F288339842F2D9032070BD5E
:1021A8003B4B1B6903F03803182B17D0FEF752FA84
:1021B800801B41F288339842F2D9032070BD344B1A
:1021C8001B6903F03803082B08D0FEF743FA801B7D
:1021D80041F288339842F2D9032070BD2B4B1B681B
:1021E80003F007039D420CD2284A136823F0070323
:1021F8002B431360136803F007039D4201D00120AD
:1022080070BD236813F0040F06D0214A936923F0A8
:10221800700321690B439361236813F0080F06D0FC
:102228001B4AD36923F0700361690B43D3612368A8
:1022380013F0100F06D0164AD36923F4E063A1699E
:102248000B43D361236813F0200F06D0104A136A9A
:1022580023F07003E1690B431362FFF741FE0C4B57
:102268009B6903F470634FF4807292FAA2F2B2FA97
:1022780082F2D340074AD35CD840074B186000204D
:10228800FEF7A6F9002070BD012070BD00200052A5
:1022980000440258947B00081000002008B500F0A4
:1022A800BFFF084B9B6903F00F03012292FAA2F2C9
:1022B800B2FA82F2D340044AD35CD840034B186088
:1022C80008BD00BF00440258947B00081400002099
:1022D80008B5FFF7E3FF074BDB6903F07003102233
:1022E80092FAA2F2B2FA82F2D340034AD35CD840FF
:1022F80008BD00BF00440258947B000808B5FFF7EA
:10230800CDFF074BDB6903F4E0634FF4807292FA68
:10231800A2F2B2FA82F2D340024AD35CD84008BD96
:1023280000440258947B0008384B9B6A03F003036F
:10233800032B69D070B50E460546344A136823F05E
:1023480080631360FEF786F90446304B1B6813F070
:10235800006F06D0FEF77EF9001B0228F5D903208E
:1023680070BD2A4A936A23F47C33296843EA01330F
:1023780093626B68013BC3F30803A96801394902FA
:1023880089B20B43E9680139090401F4FE010B43E2
:1023980029690139090601F0FE410B439363D36AA9
:1023A80023F0C00369690B43D362D36A23F0200387
:1023B800A9690B43D362BEB9D36A43F40023D3623D
:1023C800124A136843F080631360FEF743F904462A
:1023D8000E4B1B6813F0006F14D1FEF73BF9001B7E
:1023E8000228F5D9032070BD012E05D0074AD36A0B
:1023F80043F40013D362E3E7044AD36A43F4801337
:10240800D362DDE7002070BD012070470044025808
:10241800384B9B6A03F00303032B69D070B50E4653
:102428000546344A136823F080531360FEF712F907
:102438000446304B1B6813F0005F06D0FEF70AF91C
:10244800001B0228F5D9032070BD2A4A936A23F09D
:102458007C73296843EA015393626B68013BC3F3B9
:102468000803A9680139490289B20B43E9680139AF
:10247800090401F4FE010B4329690139090601F039
:10248800FE410B431364D36A23F4406369690B4329
:10249800D362D36A23F40073A9690B43D362BEB92C
:1024A800D36A43F48003D362124A136843F080531B
:1024B8001360FEF7CFF804460E4B1B6813F0005F5D
:1024C80014D1FEF7C7F8001B0228F5D9032070BD08
:1024D800012E05D0074AD36A43F08073D362E3E73D
:1024E800044AD36A43F40003D362DDE7002070BDD9
:1024F8000120704700440258F8B50446036813F0F9
:10250800006F2BD0436EB3F5801F19D010D9B3F5E7
:10251800001F1BD0B3F5401F1ED1002666BB934A8F
:10252800136D23F44013616E0B431365354617E0B2
:1025380093B98E4AD36A43F40033D3620026EDE799
:1025480002210430FFF7F0FE0646E7E702212430B7
:10255800FFF75EFF0646E1E70126DFE700252E4686
:10256800236813F4807F16D0636D042B31D8DFE81D
:1025780003F00523290A0A003546F1E77B4AD36AA6
:1025880043F40033D36236BB784A136D23F0070354
:10259800616D0B431365236813F4007F32D0A36D7C
:1025A800802B43D01AD803B3402B1CD10021201D07
:1025B800FFF7BAFE06461DE00021201DFFF7B4FE16
:1025C8000646E0E7002104F12400FFF721FF064654
:1025D800D9E70126D7E73543EDB2DCE7C02B09D0B0
:1025E800B3F5807F06D0012604E0604AD36A43F43D
:1025F8000033D3620EBB5D4A136D23F4E073A16D03
:102608000B431365236813F4806F2FD0D4F8A430DC
:10261800B3F5800F3ED013D8D3B1B3F5001F15D151
:102628000021201DFFF780FE064616E0002104F178
:102638002400FFF7EDFE0646DCE73543EDB2E1E79F
:10264800B3F5C00F09D0B3F5000F06D0012604E09A
:10265800464AD36A43F40033D36216BB434A936DA8
:1026680023F46003D4F8A4100B439365236813F490
:10267800006F2FD0D4F8A830B3F1007F37D013D82B
:10268800D3B1B3F1807F15D10021201DFFF74CFE97
:10269800064616E0002104F12400FFF7B9FE0646BD
:1026A800DBE73543EDB2E1E7B3F1407F09D0B3F1A1
:1026B800806F06D0012604E02C4AD36A43F4003325
:1026C800D362DEB9294A936D23F0E063D4F8A810E9
:1026D8000B439365236813F0007F22D0A36C102B63
:1026E80012D00ED9202B2FD0302B12D00AE0002187
:1026F80004F12400FFF78CFE0646E2E73543EDB20D
:10270800E8E733B1012604E0184AD36A43F40033FA
:10271800D362FEB9154AD36C23F03003A16C0B4386
:10272800D364236813F4805F30D0E36DB3F5005FA2
:1027380073D012D8E3B1B3F5805F14D10021201D06
:10274800FFF7F2FD064618E00221201DFFF7ECFD19
:102758000646DEE73543EDB2E3E7B3F5405F0CD05C
:10276800B3F5804F09D0012607E000BF00440258A6
:10277800954AD36A43F40033D362002E54D1924A67
:10278800136D23F4E043E16D0B431365236813F4E1
:10279800005F16D0236EB3F5003F53D047D83BB146
:1027A800B3F5803F4CD10121201DFFF7BDFD064642
:1027B800002E4ED1844A136D23F4E023216E0B437F
:1027C8001365236813F4804F18D0D4F8AC30B3F1F4
:1027D800005F4CD040D83BB1B3F1805F45D10121B7
:1027E800201DFFF7A1FD0646002E47D1764A936DBE
:1027F80023F0E043D4F8AC100B439365236813F43B
:10280800004F4BD0E36EB3F1805F3AD0B3F1005F75
:102818004FD0002B3AD0012638E0002104F12400E3
:10282800FFF7F6FD0646A8E73543EDB2AEE7B3F588
:10283800802FBDD0B3F5A02FBAD0B3F5403FB7D0A5
:102848000126B5E7012104F12400FFF7E1FD064662
:10285800AEE73543EDB2B4E7B3F1804FC4D0B3F17E
:10286800A04FC1D0B3F1405FBED00126BCE7012123
:1028780004F12400FFF7CCFD0646B5E73543EDB279
:10288800BCE7514AD36A43F40033D362BEB94E4A17
:10289800136D23F04053E16E0B431365236813F067
:1028A800807F1CD0636C032B43D8DFE803F0100B48
:1028B8003C100121201DFFF737FD0646E6E73543AA
:1028C800EDB2EBE7404AD36A43F40033D36296BBD8
:1028D8003D4AD36C23F00303616C0B43D364236834
:1028E80013F4800F2AD1236813F0010F00F09E80A3
:1028F800A36F282B00F2AD80DFE803F090ABABAB01
:10290800ABABABAB8BABABABABABABABA4ABABAB36
:10291800ABABABAB90ABABABABABABAB90ABABAB35
:10292800ABABABAB90000221201DFFF7FDFC0646C8
:10293800CDE70126CBE73543EDB2D0E7234A13684C
:1029480043F480731360FDF785FE07461F4B1B6831
:1029580013F4807F05D1FDF77DFEC01B6428F5D9EF
:102968000326002E52D1184B1B6FD4F8B0205340C9
:1029780013F4407F0CD0144B1A6F22F44072196F75
:1029880041F480311967196F21F4803119671A678A
:10299800D4F8B030B3F5807F1AD0002E33D1D4F8F4
:1029A800B03003F44072B2F5407F22D0064A136972
:1029B80023F47C53136104490B6FD4F8B020C2F39D
:1029C8000B0213430B678EE7004402580048025875
:1029D800FDF740FE0746B74B1B6F13F0020FDCD123
:1029E800FDF738FEC01B41F288339842F3D903261D
:1029F800D3E7B048026922F47C52AF4901EA1313C5
:102A080013430361D7E73543EDB26CE73543EDB2C5
:102A180069E70121201DFFF787FC0646DEB9A54AB4
:102A2800536D23F03803A16F0B435365236813F0EC
:102A3800020F20D0636F052B32D8DFE803F0140FA4
:102A48002A141414012104F12400FFF7E1FC0646BE
:102A5800E4E70126E2E73543EDB2E7E70121201D6F
:102A6800FFF762FC0646EEB9924A536D23F007035E
:102A7800616F0B435365236813F0040F25D0D4F816
:102A88009030052B00F2BB80DFE803F0140FB2147E
:102A98001414012104F12400FFF7BAFC0646E2E70A
:102AA8000126E0E73543EDB2E5E70121201DFFF7F8
:102AB8003BFC0646002E40F0A4807E4A936D23F02E
:102AC8000703D4F890100B439365236813F0200F85
:102AD8001CD0D4F88C30B3F1005F00F0A38000F272
:102AE800938043B1B3F1805F40F09A800021201DAC
:102AF800FFF71AFC0646002E40F09B806D4A536D86
:102B080023F0E043D4F88C100B435365236813F08B
:102B1800400F1CD0D4F89830B3F5006F00F09A80BD
:102B280000F28A8043B1B3F5806F40F091800021B4
:102B3800201DFFF7F9FB0646002E40F092805D4A03
:102B4800936D23F4E053D4F898100B4393652368EE
:102B580013F0800F1CD0D4F89C30B3F5804F00F0F0
:102B68008F8000F2818043B1B3F5005F40F086802A
:102B78000021201DFFF7D8FB0646002E40F0878075
:102B88004C4A936D23F46043D4F89C100B4393652F
:102B9800236813F0080F0AD0D4F88030B3F5805FAB
:102BA80078D044494A6D22F4405213434B65236858
:102BB80013F0100F0AD0D4F89430B3F5807F71D099
:102BC8003C498A6D22F4407213438B65236813F4E1
:102BD800002F00F08180D4F8A030B3F5803F00F0DA
:102BE8008C80B3F5003F6ED0002B67D001266AE0D9
:102BF800012104F12400FFF70BFC06465AE70126E1
:102C080058E73543EDB260E7B3F1804F3FF473AF57
:102C1800B3F1A04F3FF46FAFB3F1405F3FF46BAF38
:102C2800012668E7022104F12400FFF7F1FB0646BC
:102C380061E73543EDB269E7B3F5805F3FF47CAFF8
:102C4800B3F5A05F3FF478AFB3F5406F3FF474AFCE
:102C5800012671E7022104F12400FFF7D9FB06469B
:102C68006AE73543EDB272E7B3F5004F85D0B3F5A7
:102C7800204F82D0B3F5C04F3FF47FAF01267CE7E9
:102C8800022104F12400FFF7C3FB064675E735432C
:102C9800EDB27DE7022104F12400FFF7B9FB0543FB
:102CA800EDB284E7022104F12400FFF7B1FB0543EC
:102CB800EDB28BE700440258CFFFFF000021201D32
:102CC800FFF732FB0646FEB9654A936D23F440339D
:102CD800D4F8A0100B439365236813F4802F24D0F5
:102CE800D4F88430B3F5001F2AD0B3F5401F13D0B1
:102CF800B3F5801F0BD001260EE0022104F1240059
:102D0800FFF786FB0646DEE73543EDB2E4E7544AB3
:102D1800D36A43F40033D362CEB9514A536D23F4D6
:102D28004013D4F884100B435365236813F4803F91
:102D38001DD0E36C73B1B3F5803F2CD001260EE0B3
:102D4800012104F12400FFF763FB0646E4E735435D
:102D5800EDB2EAE7424AD36A43F40033D36206BBD2
:102D68003F4AD36C23F48033E16C0B43D36423686C
:102D780013F0005F18D1236813F4003F2DD0E36FE0
:102D8800B3F5807F1BD017D9B3F5007F1CD0B3F5FE
:102D9800407F12D118E00221201DFFF7C5FA064630
:102DA800DDE73543EDB2E2E7022104F12400FFF745
:102DB8002FFB0543EDB2DEE733B1012604E0284AD4
:102DC800D36A43F40033D362002E3DD1244A536DB5
:102DD80023F44073E16F0B435365236813F4801F9A
:102DE80006D01F4A136D23F00043216F0B43136570
:102DF800236813F0805F07D0194A136923F48043CE
:102E0800D4F8B4100B431361236813F4001F06D0E1
:102E1800134A136D23F08073A16E0B431365236867
:102E280013F0804F09D00E4B1A6922F400421A6140
:102E38001A69D4F8B8100A431A612368002B06DB14
:102E480005B101252846F8BD3543EDB2C5E7044A6A
:102E5800D36C23F04053216D0B43D364F0E700BFDC
:102E68000044025808B5FFF719FA074B1B6A03F02C
:102E78007003102292FAA2F2B2FA82F2D340034A05
:102E8800D35CD84008BD00BF00440258947B0008BA
:102E9800F0B56C4CA76A07F00307A16AC1F3053EB9
:102EA800E36A03F01003E66BC6F3CC0606FB03F6F1
:102EB80007EE906AB8EE677A012F60D0F7B1022F5B
:102EC80000F0A480604BB3FBFEF307EE903AF8EEF7
:102ED800677A5C4B9B6BC3F30803DFED5C6A27EEF4
:102EE800267A06EE903AF8EE666A36EE877AF7EEBC
:102EF800006A37EE267A67EE877A5BE0514B1B68EB
:102F080013F0200F1FD04F4A1368C3F3C103504D6D
:102F1800DD40B5FBFEF307EE903AF8EE677A936B67
:102F2800C3F30803DFED496A27EE267A06EE903AE6
:102F3800F8EE666A36EE877AF7EE006A37EE267A9A
:102F480067EE877A36E0424CB4FBFEF307EE903A20
:102F5800F8EE677A3B4B9B6BC3F30803DFED3B6AE4
:102F680027EE267A06EE903AF8EE666A36EE877A0B
:102F7800F7EE006A37EE267A67EE877A1AE032496A
:102F8800B1FBFEF307EE903AF8EE677A2D4B9B6B98
:102F9800C3F30803DFED2D6A27EE267A06EE903A92
:102FA800F8EE666A36EE877AF7EE006A37EE267A2A
:102FB80067EE877A234A936BC3F34623013307EE00
:102FC800103AB8EE477AC7EE876AFCEEE66AC0EDBB
:102FD800006A936BC3F30643013307EE103AB8EE69
:102FE800477AC7EE876AFCEEE66AC0ED016A936B22
:102FF800C3F30663013307EE103AB8EE477AC7EE1B
:10300800876AFCEEE66AC0ED026AF0BD114AB2FBBF
:10301800FEF307EE903AF8EE677A0A4B9B6BC3F320
:103028000803DFED0A6A27EE267A06EE903AF8EEF4
:10303800666A36EE877AF7EE006A37EE267A67EE2A
:10304800877AB7E70044025800093D0000000039BC
:103058000090D00300127A00F0B56C4CA76A07F014
:103068000307A16AC1F3055EE36A03F48073666C23
:10307800C6F3CC0606FB03F607EE906AB8EE677A4D
:10308800012F60D0F7B1022F00F0A480604BB3FB92
:10309800FEF307EE903AF8EE677A5C4B1B6CC3F3CD
:1030A8000803DFED5C6A27EE267A06EE903AF8EE22
:1030B800666A36EE877AF7EE006A37EE267A67EEAA
:1030C800877A5BE0514B1B6813F0200F1FD04F4AE3
:1030D8001368C3F3C103504DDD40B5FBFEF307EEA3
:1030E800903AF8EE677A136CC3F30803DFED496A88
:1030F80027EE267A06EE903AF8EE666A36EE877A7A
:10310800F7EE006A37EE267A67EE877A36E0424CA9
:10311800B4FBFEF307EE903AF8EE677A3B4B1B6C74
:10312800C3F30803DFED3B6A27EE267A06EE903AF2
:10313800F8EE666A36EE877AF7EE006A37EE267A98
:1031480067EE877A1AE03249B1FBFEF307EE903A50
:10315800F8EE677A2D4B1B6CC3F30803DFED2D6A7D
:1031680027EE267A06EE903AF8EE666A36EE877A09
:10317800F7EE006A37EE267A67EE877A234A136CF1
:10318800C3F34623013307EE103AB8EE477AC7EE89
:10319800876AFCEEE66AC0ED006A136CC3F3064367
:1031A800013307EE103AB8EE477AC7EE876AFCEEAD
:1031B800E66AC0ED016A136CC3F30663013307EED8
:1031C800103AB8EE477AC7EE876AFCEEE66AC0EDB9
:1031D800026AF0BD114AB2FBFEF307EE903AF8EE30
:1031E800677A0A4B1B6CC3F30803DFED0A6A27EE04
:1031F800267A06EE903AF8EE666A36EE877AF7EEA9
:10320800006A37EE267A67EE877AB7E700440258F5
:1032180000093D00000000390090D00300127A0038
:1032280008B5FEF75DFE084B9B6903F470634FF425
:10323800807292FAA2F2B2FA82F2D340034AD35CC5
:10324800D840034B186008BD00440258947B00081E
:103258001000002010B402685369916941F0080118
:10326800916101688A6942F010028A6101680A68FE
:1032780022F001020A6001680C69294A22400A61A9
:1032880001688A6822F440428A6090F88120D2B2AC
:10329800042A0DD013F0200F0AD0D0F8842042F071
:1032A8008002C0F8842001688A6942F020028A619D
:1032B80090F88120D2B2032A0DD013F0400F0AD023
:1032C800D0F8842042F00402C0F8842001688A699A
:1032D80042F040028A6113F4007F0AD0D0F88420BB
:1032E80042F00102C0F8842001688A6942F4007241
:1032F8008A6113F4807F0AD0D0F8843043F0080341
:10330800C0F884300268936943F4807393610023A2
:10331800A0F86230A0F86A305DF8044B704700BF2F
:1033280094FCFFFFC36B5B09C0680830C00803FB4F
:10333800000070472DE9F04107460E4615469846AD
:10334800069C3B685B6936EA03030CBF0123002334
:10335800AB420CD1B4F1FF3FF3D05CB1FDF77AF981
:10336800A0EB08008442ECD20320BDE8F0810020E5
:10337800BDE8F0810320BDE8F0810000002800F0DE
:10338800998070B504460023836205684C4B4D4E06
:103398009D4218BFB54214BF0126002607D0A3F5E9
:1033A80074439D4203D0C3680F2B00F285802046EA
:1033B800FFF7B8FF26B1444B9D4201D008287DD8BD
:1033C800404B3F4A9D4218BF95425CD003F580634D
:1033D8009D4258D094F88130002B58D0022384F8AD
:1033E80081302268136823F001031360A369B3F1E5
:1033F800806F52D02268E369A16A0B43E16B0B43EB
:10340800E1680B4393602268636B616A0B43A16BAD
:103418000B43A1690B4321690B4361690B43216A83
:103428000B4361680B43E16C0B43A1680B43A16C30
:103438000B43A16D0B43D36063686BB92268936833
:1034480023F4C05343F4006393602268936823F421
:10345800C06343F4806393602268136D23F0010313
:103468001365636813F4800F06D02268D36823F0CD
:103478000043616D0B43D3600020C4F8840001232E
:1034880084F8813070BD1028A4D9012070BD84F85B
:103498008030204601F000FFA0E76368B3F5800F95
:1034A800A8D1A36B002BA5D12268136843F48053DD
:1034B80013609FE701207047012070BD012070BD97
:1034C8000030014000380040003C00402DE9F04148
:1034D80082B090F88040012C03D1022002B0BDE8F0
:1034E800F0811D4617460E460446012380F88030B9
:1034F800FDF7B0F8804694F88130DBB2012B04D098
:10350800002384F880300220E8E7002F18BF002E3F
:103518002AD0032384F881300023C4F88430E66578
:10352800A4F86070A4F862706366A4F86830A4F820
:103538006A3063672367A368B3F5C02F19D023687F
:1035480059688D4A0A403A435A602268136843F022
:10355800010313606368B3F5800F10D0E3680F2B85
:103568001DD8072B51D8B9E0002384F880300120FA
:10357800B4E72268136843F400631360DFE7226846
:10358800136843F400731360E8E70DB3B5F1FF3F28
:1035980005D0FDF75FF8A0EB0800854218D9B4F80C
:1035A80062309BB2002B00F0C88023685A6912F081
:1035B800020FEAD0E26D12681A62E36D0433E36524
:1035C800B4F862309BB2013B9BB2A4F86230E6E7E4
:1035D8002046FFF73FFE002384F88030D4F884307B
:1035E80043F48073C4F88430012084F8810075E7BF
:1035F800E26D12881A84E36D0233E365B4F8623031
:103608009BB2013B9BB2A4F86230B4F862309BB223
:10361800002B00F0928023685A6912F0020F15D02F
:10362800B4F8622092B2012AE2D9E26B002ADFD014
:10363800E26D12681A62E36D0433E365B4F8623030
:103648009BB2023B9BB2A4F86230DEE745B1B5F10C
:10365800FF3FDAD0FCF7FEFFA0EB08008542D4D884
:103668002046FFF7F7FD002384F88030D4F8843033
:1036780043F48073C4F88430012084F881002DE776
:10368800B4F8622092B2012A0FD9E26B6AB1E26DF6
:1036980012881A84E36D0233E365B4F862309BB292
:1036A800023B9BB2A4F8623018E0E26D127883F80E
:1036B8002020E36D0133E365B4F862309BB2013B2F
:1036C8009BB2A4F8623009E03DB3B5F1FF3F05D0E5
:1036D800FCF7C0FFA0EB080085421ED9B4F86230A1
:1036E8009BB253B323685A6912F0020FECD0B4F8B6
:1036F800622092B2032AC3D9E26B402AC0D9E26D94
:1037080012681A62E36D0433E365B4F862309BB261
:10371800043B9BB2A4F86230E0E72046FFF79AFD2D
:10372800002384F88030D4F8843043F48073C4F8DC
:103738008430012084F88100D0E6009543460022B9
:1037480008212046FFF7F6FD28B1D4F8843043F06D
:103758002003C4F884302046FFF77CFD002384F85A
:103768008030012384F88130D4F884300BB90020EC
:10377800B4E60120B2E600BF0000FFFF38B590F8BC
:103788008030012B00F0C080012380F8803090F851
:103798008130DBB2012B04D0002380F88030022076
:1037A80038BD002A18BF002922D0032380F88130B1
:1037B8000023C0F88430C165A0F86020A0F862201A
:1037C800436643670367A0F86830A0F86A308368E7
:1037D800B3F5C02F11D0C3680F2B14D9C16F8969F5
:1037E800B1F5804F0FD0002380F88030012038BD1C
:1037F800002380F88030012038BD01680B6843F44D
:1038080000630B60E7E7072B07D9C16F8969B1F53A
:10381800005F18BFB1F5804FE5D1072B58D8836FEB
:103828009969B1F5005F41D09B69B3F5804F46D0E7
:1038380015460446836F354A1A64836F344ADA633F
:10384800836F344ADA64836F00221A6502689368CA
:1038580023F4004393600268B0F862309BB22032D0
:10386800C16D806FFDF780F9A36FDB69B3F5807FC9
:103878003ED023685968284A0A402A435A60226879
:10388800936843F4004393602268136943F44873D0
:1038980013612268136843F0010313606368B3F58A
:1038A800800F2BD0002084F8800038BDB0F862105B
:1038B80089B20131C1F34F01A0F86210B4E7B0F842
:1038C80062309BB20333C3F38F03A0F86230AFE7D3
:1038D8000F2BADD8836F9B69B3F5804FA8D1B0F893
:1038E80062309BB20133C3F34F03A0F862309FE705
:1038F80022685168084B0B405360C0E72268136880
:1039080043F400731360CDE7022038BD573900082F
:1039180027390008633900080000FFFF704708B521
:10392800806B90F88130DBB2072B09D0836FDB699D
:10393800B3F5807F05D00268136943F0080313616B
:1039480008BDFFF7EBFF08BD70477047704708B523
:10395800806BFFF7FBFF08BD704710B5846BFDF760
:103968007BFB02280ED02046FFF774FCD4F8843085
:1039780043F01003C4F88430012384F881302046D2
:10398800FFF7EAFF10BD00002DE9F843044603687D
:103998001F69D3F8148007EA0806D3F8089090F84E
:1039A8008150EDB206F04103012B41D0002306F00F
:1039B8002202022A40D0002B38D116F0080F7DD001
:1039C8002268936943F0080393612268936943F07E
:1039D800100393612268936943F40063936122683A
:1039E800136923F00803136119F4404F09D0042D1B
:1039F80002D0A36FDB6923B1032D11D0E36FDB691C
:103A080073B923689B6813F4404F2AD02046FFF708
:103A180021FC012384F88130D4F88430002B39D17B
:103A2800052D3CD0042D3FD0032D42D0BDE8F883AE
:103A3800036F98470123BAE7636F2046984701232D
:103A4800B9E7072B1DD9636E2268128E1A80636E40
:103A580002336366B4F86A309BB2013B9BB2A4F8A8
:103A68006A30B4F86A309BB2002BCFD0E3680F2BD2
:103A7800E7D9636E2268126B1A60636E043363665B
:103A8800E8E7636E226892F830201A70636E01339B
:103A98006366DFE72046FFF75FFFBDE8F88320464F
:103AA800FFF753FFBDE8F8832046FFF74DFFBDE859
:103AB800F8832046FFF732FFBDE8F88317F0080FB8
:103AC80002D018F4006F63D116F4587FAED016F008
:103AD800400F0AD0D4F8843043F00403C4F884308B
:103AE8002268936943F04003936116F4007F0AD07B
:103AF800D4F8843043F00103C4F884302268936911
:103B080043F40073936116F4807F0AD0D4F88430AC
:103B180043F00803C4F884302268936943F480733F
:103B2800936116F0200F0AD0D4F8843043F0800354
:103B3800C4F884302268936943F020039361D4F871
:103B48008430002B3FF472AF2268136823F001031E
:103B5800136022681169154B0B40136119F4404F2B
:103B68001DD02268936823F440439360E36F23B128
:103B78000F4A1A65E06FFDF775F8A36F002B3FF445
:103B880055AF0B4A1A65A06FFDF76CF8BDE8F883CE
:103B98002268936943F400639361BDE8F8830123C5
:103BA80084F881302046FFF7D7FE3FE794FCFFFFFB
:103BB800BD3B000808B5806B0023A0F86A30A0F868
:103BC8006230012380F88130FFF7C6FE08BD00008F
:103BD8002DE9F04387B004460168826A836800696A
:103BE800034360690343E0690343134308688F4A4A
:103BF800024013430B602268536823F44053E16882
:103C08000B435360A369226889498A4201D0216A1B
:103C18000B43A16AB1F1005F7FD0906885490140EC
:103C28000B4393602268D36A23F00F03616A0B4346
:103C3800D3622568804B9D4274D0804B9D4200F032
:103C4800AE807F4B9D4200F0C4807E4B9D4200F0C9
:103C5800D7807D4B9D4200F003817C4B9D4200F054
:103C680016817B4B9D4200F03B817A4B9D4200F0D0
:103C78004E816F4B9D4200F0618180266C4B9D42C6
:103C880000F08681E369B3F5004F00F0AF82402E63
:103C980000F21784DFE816F07A038B031504150485
:103CA8009C03150415041504C40315041504150410
:103CB8001504150415041504EE031504150415045C
:103CC8001504150415041504150415041504150424
:103CD8001504150415041504FE031504150415042C
:103CE8001504150415041504150415041504150404
:103CF80015041504150415041504150415041504F4
:103D080015041504150415041504150415041504E3
:103D18001504150415041504B003E16A206B01436A
:103D28000B437AE74C4B5B6D03F03803282B2AD8FA
:103D3800DFE813F01C0129002900290029002900C7
:103D4800290029002B002900290029002900290021
:103D5800290029002D00290029002900290029000F
:103D6800290029002F0029002900290029002900FD
:103D780029002900310029002900290029002900EB
:103D8800290029003300802678E7042676E74026B4
:103D980074E7082672E7102670E720266EE72E4B98
:103DA8005B6D03F00703052B07D8DFE813F0E1008C
:103DB80008000A000C000E00100080265EE70426AA
:103DC8005CE740265AE7082658E7102656E72026DB
:103DD80054E7214B5B6D03F00703052B04D8DFE89C
:103DE80003F0C90507090B0D802647E7042645E7B8
:103DF800402643E7082641E710263FE720263DE70F
:103E0800154B5B6D03F00703052B04D8DFE803F0BF
:103E1800B40507090B26802630E704262EE740263E
:103E28002CE708262AE7102628E700BFF369FFCF0A
:103E3800000C0058FFF4FF1100100140004400403E
:103E480000480040004C0040005000400014014071
:103E580000780040007C00400044025820260DE70E
:103E6800854B5B6D03F00703052B04D8DFE803F0EF
:103E7800860507090B0D802600E70426FEE6402686
:103E8800FCE60826FAE61026F8E62026F6E67A4B3F
:103E98005B6D03F03803282B16D8DFE803F07115A3
:103EA80015151515151517151515151515151915B4
:103EB8001515151515151B151515151515151D159C
:103EC8001515151515151F008026D7E60426D5E605
:103ED8004026D3E60826D1E61026CFE62026CDE6F2
:103EE800654B5B6D03F00703052B04D8DFE803F08F
:103EF8004A0507090B0D8026C0E60426BEE64026C3
:103F0800BCE60826BAE61026B8E62026B6E65A4BDE
:103F18005B6D03F00703052B04D8DFE803F03505D4
:103F280007090B0D8026A9E60426A7E64026A5E684
:103F38000826A3E61026A1E620269FE603F50E3301
:103F48009B6D03F00703052B04D8DFE803F01F057A
:103F580007090B0D802691E604268FE640268DE69C
:103F680008268BE6102689E6202687E6012685E6C0
:103F7800002683E6002681E600267FE600267DE609
:103F880001267BE6002679E6002677E6022675E616
:103F9800082E3AD008D9202E44D0402E2FD0102EEB
:103FA8000CD0012500200BE0022E24D0042EF8D1DD
:103FB80003A8FEF76DFF0498002501E000252F48AF
:103FC800002800F05081676807EB47039842C0F06B
:103FD8007282B0EB073F00F27082082E00F09680E4
:103FE80027D9202E00F0EE80402E71D0102E00F040
:103FF800CE80012563E0FEF735FF0025E0E768463F
:10400800FFF72AF801980025DAE71B4B1B6813F025
:10401800200F0BD0184B1B68C3F3C1031848D840B6
:104028000025CDE700254FF40040C9E700251448D6
:10403800C6E7022E28D0042EDBD103A8FEF728FFFE
:104048004FF00008626A0F4B33F8122000230498DF
:104058004146FCF73DF90F0247EA1067060262681D
:104068005008434616EB000847F100094046494608
:10407800FCF72EF923E000BF0044025800093D0078
:104088000090D003A4570008FEF7ECFE4FF000089C
:10409800626A9F4B33F8122000234146FCF718F957
:1040A8000F0247EA1067060262685008434616EB9B
:1040B800000847F1000940464946FCF709F9A0F510
:1040C8004072944B9A4200F2FA812368D860CAE0A1
:1040D8006846FEF7C1FF4FF00008626A8C4B33F860
:1040E8001220002301984146FCF7F2F80F0247EA34
:1040F8001067060262685008434616EB000847F14D
:10410800000940464946FCF7E3F8D8E7824B1B68AC
:1041180013F0200F20D0804B1968C1F3C10100268D
:10412800626A7B4B33F8122000237C48C840314632
:10413800FCF7CEF84FEA012949EA10694FEA00284E
:1041480078083A46334618EB000649F1000730462E
:104158003946FCF7BDF8B2E7626A6D4B33F81220B6
:1041680000236E480021FCF7B3F84FEA012949EA19
:1041780010694FEA002878083A46002318EB000631
:1041880049F1000730463946FCF7A2F897E7626A1A
:104198005F4B33F81220002361480021FCF798F8A0
:1041A8004FEA012949EA10694FEA002878083A4697
:1041B800002318EB000649F1000730463946FCF7A2
:1041C80087F87CE7626A524B33F812304FF40042AA
:1041D800B2FBF3F292B2002110027E083A460023A5
:1041E800801941F10001FCF773F868E7402E00F2EE
:1041F800CA80DFE806F0213CC8C84DC8C8C873C8E3
:10420800C8C8C8C8C8C8A7C8C8C8C8C8C8C8C8C847
:10421800C8C8C8C8C8C8B7C8C8C8C8C8C8C8C8C827
:10422800C8C8C8C8C8C8C8C8C8C8C8C8C8C8C8C806
:10423800C8C8C8C8C8C86000FEF74AF8626A344BE4
:1042480033F81230B0FBF3F06268530803EB400315
:10425800B3FBF2F39BB2002523F00F02C3F3420332
:1042680013432268D360284607B0BDE8F083FEF701
:1042780045F8626A264B33F81230B0FBF3F06268F7
:10428800530803EB4003B3FBF2F39BB20025E3E7CB
:1042980003A8FEF7FDFD626A1D4B33F81220049B4C
:1042A800B3FBF2F261684B0803EB4203B3FBF1F393
:1042B8009BB20025D0E76846FEF7CEFE626A144B33
:1042C80033F81220019BB3FBF2F261684B0803EB51
:1042D8004203B3FBF1F39BB20025BDE70E4B1B680D
:1042E80013F0200F1ED00C4B1A68C2F3C1020B4BFF
:1042F800D340616A064A32F81120B3FBF2F26168D2
:104308004B0803EB4203B3FBF1F39BB20025A3E791
:10431800A4570008FFFC0F00004402580090D00387
:1043280000093D00626A684B33F81220674BB3FB03
:10433800F2F261684B0803EB4203B3FBF1F39BB263
:10434800002589E7626A604B33F81220604BB3FBA3
:10435800F2F261684B0803EB4203B3FBF1F39BB243
:10436800002579E7626A584B33F812204FF400436E
:10437800B3FBF2F261684B0803EB4203B3FBF1F3C2
:104388009BB2002568E70125002365E7FDF7A0FF3C
:10439800626A4D4B33F81230B0FBF3F3606803EBFD
:1043A8005003B3FBF0F39BB2EB6000255BE7FDF72E
:1043B800A5FF626A444B33F81230B0FBF3F3606830
:1043C80003EB5003B3FBF0F39BB2EB6000254AE725
:1043D80003A8FEF75DFD2168626A3B4B33F81220A3
:1043E800049BB3FBF2F3626803EB5203B3FBF2F3F3
:1043F8009BB2CB60002536E76846FEF72DFE2168A4
:10440800626A314B33F81220019BB3FBF2F3626806
:1044180003EB5203B3FBF2F39BB2CB60002522E718
:104428002C4B1B6813F0200F14D02A4B1A68C2F3C8
:10443800C102264BD340616A234A32F81120B3FBEC
:10444800F2F3626803EB5203B3FBF2F39BB2EB6047
:10445800002508E7626A1C4B33F812201B4BB3FB9C
:10446800F2F3626803EB5203B3FBF2F39BB2EB6027
:104478000025F8E6626A144B33F81220144BB3FB9C
:10448800F2F3626803EB5203B3FBF2F39BB2EB6007
:104498000025E8E6626A0C4B33F812204FF400431B
:1044A800B3FBF2F3626803EB5203B3FBF2F39BB284
:1044B800EB600025D7E60125D5E60125D3E60125E1
:1044C800D1E60125CFE600BFA45700080090D0032D
:1044D80000093D0000440258436B13F0010F06D059
:1044E8000268536823F40033816B0B435360436BBA
:1044F80013F0020F06D00268536823F48033C16BAF
:104508000B435360436B13F0040F06D002685368E3
:1045180023F48023016C0B435360436B13F0080FA3
:1045280006D00268536823F40043416C0B43536080
:10453800436B13F0100F06D00268936823F480537E
:10454800816C0B439360436B13F0200F06D0026815
:10455800936823F40053C16C0B439360436B13F0CF
:10456800400F0AD00268536823F48013016D0B438F
:104578005360036DB3F5801F0BD0436B13F0800FAE
:1045880006D00268536823F40023816D0B435360FF
:1045980070470268536823F4C003416D0B435360AE
:1045A800EBE72DE9F04105460F4616469846069C6E
:1045B8002B68DB6937EA03030CBF01230023B342EE
:1045C8001ED1B4F1FF3FF3D02CB1FCF743F8A0EBB8
:1045D80008008442ECD22A68136823F4D07313606D
:1045E8002A68936823F001039360202385F87930C3
:1045F80085F87A30002385F878300320BDE8F0810B
:104608000020BDE8F08130B583B004460023C367BD
:10461800FCF720F8054623681B6813F0080F0ED135
:1046280023681B6813F0040F17D1202384F879300E
:1046380084F87A30002084F8780003B030BD6FF039
:104648007E430093034600224FF400112046FFF7F3
:10465800A8FF0028E4D00320EFE76FF07E43009323
:104668002B4600224FF480012046FFF79AFF0028CE
:10467800DBD00320E1E778B310B5044690F8793031
:104688000BB3242384F879302268136823F00103DC
:1046980013602046FFF79CFA01281FD0636BBBB953
:1046A8002268536823F4904353602268936823F088
:1046B8002A0393602268136843F0010313602046BD
:1046C800FFF7A1FF10BD80F8783000F0FDFED8E7B5
:1046D8002046FFF701FFE3E70120704710BD000007
:1046E80084B010B5044603A880E80E00089B012B8F
:1046F80011D0E36843F04003E360204600F032F94C
:104708004FF48033A363069B012B1CD00020BDE827
:10471800104004B07047A36B23F48033A363E268AE
:104728000D4B1340E360E36823F44013E3600F9BF1
:10473800012B03D0204600F015F9E4E7E36843F4C1
:104748008013E360F6E7A36843F00C03A360A36853
:1047580043F02003A360D9E7BFFFBDFF836823F0C0
:10476800010383600020704708B5C36823F0C04385
:10477800C360012909D019B9C36843F08043C360F5
:104788003220FBF76DFF002008BDC36843F00053DB
:10479800C360F5E784B0F8B5054607A880E80E00C1
:1047A800AB6B43F40013AB63119F5FB9AB6B23F49E
:1047B8000013AB632B6843F040032B602B6843F076
:1047C80080032B602C460023C5F8003E05F50066E3
:1047D800D5F80038C5F800380C9B012B12D00321FE
:1047E800284600F0ABF81021284600F081F828464A
:1047F80000F092F80023336173614FF0FF32B26129
:10480800F36114E0099B23B90021284600F096F8CB
:10481800E9E70121284600F091F8E4E74FF09040DD
:10482800C2F8000900220A61FF228A600133079951
:104838008B420BD204EB431202F51061D2F8000947
:104848000028EBDB0020C2F80009EBE7002308E0B2
:104858004FF0904EC2F800EB00220261FF22826006
:1048680001338B420DD204EB431202F53060D2F8CB
:1048780000EBBEF1000FEBDB4FF0000EC2F800EBCF
:10488800EAE7336923F4807333610A9B012B1AD05A
:104898000022AA616FF080426A611BB9AB6943F0DC
:1048A8001003AB61AA690E4B1343AB610D9B1BB19F
:1048B800AB6943F00803AB61012F0CD00020BDE8C1
:1048C800F84004B07047074A3263316B064A0A431E
:1048D8003263326BDCE7AA69044B1343AB61EDE743
:1048E80000383C8000040002030001080400004076
:1048F800890141F02001016100230133054A9342F7
:1049080005D8026912F0200FF7D100207047032064
:10491800704700BF400D03001023036100230133DB
:10492800054A934205D8026912F0100FF7D100200A
:1049380070470320704700BF400D0300D0F80038CF
:104948001943C0F800180020704708B5D0F804389B
:1049580043F00203C0F804380320FBF781FE00206F
:1049680008BD0000002301330C4A934211D80269A4
:10497800002AF8DA036943F00103036100230133D5
:10498800064A934207D8026912F0010FF7D10020B6
:104998007047032070470320704700BF400D030095
:1049A80070B504460D461646836A81684068984784
:1049B800E36A314628469847636AA1686068984761
:1049C80070BD10B50C46036B11462046984710BDC4
:1049D80008B5836A81694069984708BD08B5436A84
:1049E80081694069984708BD38B504460D46036A91
:1049F8009847084B18602046FFF7EAFF236A984754
:104A0800044B1B68C01AA842F8D32046FFF7E6FFFC
:104A180038BD00BF5C01002030B583B0044602AD4C
:104A280005F8011D436A0169C068984701222946B3
:104A38002046FFF7B5FF03B030BD30B583B004465C
:104A480002AD05F8011D836A0169C0689847012213
:104A580029462046FFF7A4FF03B030BD38B5054608
:104A6800002404E000212846FFF7D6FF0134B4F5FE
:104A7800FC7FF7DB38BD10B504464FF4FA71FFF739
:104A8800B3FF21212046FFF7D8FF13212046FFF767
:104A9800D4FFBF212046FFF7D0FF20212046FFF793
:104AA800CCFF0C212046FFF7C8FF2046FFF7D6FFB2
:104AB80010BD08B5342000F0D7FD08BD68B110B5A9
:104AC80004464FF0405020604FF4FC72002100F083
:104AD800D3FD2046FFF7CFFF10BD704710B5044641
:104AE8004021FFF7AAFF80212046FFF7A6FF636A4F
:104AF8002169E06898474FF4FC7221682046FFF767
:104B080060FF10BD542911D8302A12D830B4046877
:104B1800D008542505FB0011615602F00702012058
:104B280000FA02F20A401A7030BC70476FF00100B8
:104B380070474FF0FF307047542912D8302A13D8E5
:104B480010B40468D308542000FB031102F00702D4
:104B5800012000FA02F2635C1A4362545DF8044BC8
:104B680070476FF0010070474FF0FF3070475429CD
:104B780013D8302A14D810B40468D308542000FB82
:104B8800031102F00702012000FA02F2635C23EA33
:104B9800020262545DF8044B70476FF001007047E1
:104BA8004FF0FF30704708B513B9FFF7E0FF08BDB5
:104BB800FFF7C2FFFBE72DE9F04F83B0DDF8309037
:104BC800542B42DCB9F1300F42DC1F4693468A462B
:104BD80001900026BAF80630B34234DD002500E023
:104BE8000135BAF8042012F0070318BF012303EBBC
:104BF800D203AB4225DDDAF80020BAF8061003FB31
:104C080001F1ABF1200006FB03F300FB01332B4459
:104C180012F803800024072CE2DC07EBC50180238F
:104C2800234109EB060254FA81F103EA0803D2B2E0
:104C3800C9B20198FFF7B7FFB0F1FF3F0BD00134BD
:104C4800E9E70136C6E7012006E06FF0010003E05E
:104C58004FF0FF3000E0012003B0BDE8F08F2DE9F0
:104C6800F04782B0DDF828900B9FB9F1540F1ADC99
:104C7800302F1BDC1E4690460D4682460024B44267
:104C88000DD218F80420AB88009704FB039329463B
:104C98005046FFF790FF012802D10134EFE70120C9
:104CA80002B0BDE8F0876FF00100F9E74FF0FF3080
:104CB800F6E7000000B583B00B4BD3F8D82042F0DC
:104CC8000102C3F8D820D3F8D83003F001030193C8
:104CD800019B002211460B20FBF7F2FC0B20FBF78F
:104CE8001FFD03B05DF804FB0044025810B582B004
:104CF8001848194B036000238DF8003080228DF886
:104D08000120E1228DF802208DF803308DF804305F
:104D18008DF80530C0F804D0012303720F4BC3602F
:104D28000F4B036140F2F4534361FCF7D9FB60B9C0
:104D38000C4C34220021204600F09EFC21232360E5
:104D48004FF44033636102B010BD6421064800F09F
:104D58005BF9EDE76C01002000800240DC000020D8
:104D68007C000020D40100205C7B000802682D4BE9
:104D78009A4200D0704770B588B02B4BD3F8D82032
:104D880042F40042C3F8D820D3F8D82002F40042F5
:104D98000092009AD3F8D82042F48032C3F8D82081
:104DA800D3F8D82002F480320192019AD3F8D8209F
:104DB80042F40032C3F8D820D3F8D83003F40033D3
:104DC8000293029B3223039302260496002405943F
:104DD80006940B25079503A91448FCF71FFC8623A6
:104DE8000393049605940694079503A91048FCF7C5
:104DF80015FC4FF400530393049605940694079505
:104E080003A90C48FCF70AFC4FF4205303930496BB
:104E180005940694079503A90748FCF7FFFB08B01B
:104E280070BD00BF008002400044025800080258CC
:104E38000000025800040258001802582DE9F04FEB
:104E48008DB05B4BD3F8E02042F00402C3F8E020B9
:104E5800D3F8E02002F004020192019AD3F8E0208E
:104E680042F08002C3F8E020D3F8E02002F080028C
:104E78000292029AD3F8E02042F00102C3F8E0203F
:104E8800D3F8E02002F001020392039AD3F8E0205D
:104E980042F00202C3F8E020D3F8E02002F0020258
:104EA8000492049AD3F8E02042F00802C3F8E02004
:104EB800D3F8E02002F008020592059AD3F8E02022
:104EC80042F04002C3F8E020D3F8E03003F040039A
:104ED8000693069BDFF8E8B0002210215846FCF73D
:104EE80093FC344E00224FF481413046FCF78CFC91
:104EF800DFF8D080002240214046FCF785FC2E4F89
:104F0800012280213846FCF77FFC0122102130461F
:104F1800FCF77AFC4FF400530793284B08930024BE
:104F2800099407A93846FCF779FB4FF0100ACDF829
:104F38001CA00125089509944FF00309CDF8289085
:104F480007A95846FCF76AFB4FF481430793089575
:104F580009940A9407A93046FCF760FB402307939D
:104F6800089509940A9407A94046FCF757FB4FF0A7
:104F7800800BCDF81CB00894099407A94046FCF7AB
:104F88004DFBCDF81CB0089509940A9407A938463A
:104F9800FCF744FBCDF81CA008950994CDF828909F
:104FA80007A93046FCF73AFB0DB0BDE8F08F00BF0B
:104FB8000044025800040258000802580000111169
:104FC800000002580018025808B5002289B2FCF700
:104FD8001BFC08BD08B5012289B2FCF715FC08BD09
:104FE80008B50A238AB201460148FEF76FFA08BDE0
:104FF8000802002008B58AB201460248FEF7BEFB47
:1050080008BD00BF08020020FEE7000000B5CDB0D3
:10501800394BDA6822F00402DA60002201929A69B8
:1050280042F440429A619B6903F440430193019B17
:10503800314B9B6913F4005FFAD022233993012383
:105048003C9310223D923F930223429300224392C5
:10505800202144914FF4C871459146934793489352
:10506800042349934A924B9239A8FCF773FC002811
:1050780033D13F23319303233293002333930823FF
:1050880034934023359336934FF4806237923893A4
:10509800022131A8FDF70AF818BB184B0293002328
:1050A80019931F934FF44013239302A8FDF724FA92
:1050B800E0B9134B1868134BA3FB00308009FBF7CA
:1050C8003DFB0420FBF750FB002211464FF0FF3058
:1050D800FBF7F6FA4DB05DF804FBF9210A48FFF733
:1050E80093FF40F20B110848FFF78EFF40F21511AD
:1050F8000548FFF789FF00BF004802580210040066
:1051080010000020D34D62106C7B00082DE9F0419F
:1051180086B0FBF783FAFFF779FFFFF78FFEFFF7FB
:10512800C9FDFFF7E3FD00F0ABF900F0F9F900F075
:1051380081F8FFF7BEFC0646334BC361334B03626D
:10514800334B8362334B4362334BC362334B03634A
:10515800334BC36080230361324B43611023836167
:10516800314A42608360FFF7A9FC54230024274694
:1051780008E0002743E03046FFF7B0FC1E20FBF7AD
:105188006FFA4346294A92E803000490ADF81410D8
:10519800090C8DF8161003F1FF384FFA88F805222C
:1051A80001920093062304AA21493046FFF757FDD0
:1051B8000123224639463046FFF7F5FC0DF10F036F
:1051C800224639463046FFF79DFC7D1CEDB201347E
:1051D800E4B20DF10F03224629463046FFF792FC50
:1051E8000DF10F03224629463046FFF78BFC9DF848
:1051F8000F301F448DF80F70532DBAD82F462F2C1F
:10520800B9D90024B7E700BF690600085D060008A1
:10521800D14F0008DD4F0008E94F0008FD4F000896
:105228000008025800040258000002587C7B00085D
:105238000800002008B51548154B03604FF480039B
:1052480043604FF4003383600722C2600023036188
:1052580043614FF0005181614FF0A041C161036289
:1052680043628362C26243638363C36303644364C8
:105278008364C364036543658365FEF77FF800B9FB
:1052880008BD51210348FFF7BFFEF9E708020020D7
:1052980000300140847B00080268284B9A4200D005
:1052A8007047F0B587B00446254BD3F8F02042F498
:1052B8008052C3F8F020D3F8F03003F48053009301
:1052C800009B48F2200301930227029700250395CB
:1052D80004950526059601A91A48FCF79FF920238D
:1052E8000193029703950495059601A91648FCF7C2
:1052F80095F91648164B03602623436040238360C4
:10530800C5604FF48063036145618561C5610562CD
:105318004562FBF753FB60B90C4BA3679C63002203
:1053280011462320FBF7CCF92320FBF7F9F907B046
:10533800F0BD83210748FFF767FEEDE70030014025
:10534800004402580000025800040258900200204D
:1053580010000240847B000800B583B01E4BD3F8D0
:10536800F42042F00202C3F8F420D3F8F43003F03A
:1053780002030193019B0320FBF790F900221146D9
:105388006FF00B00FBF79CF9002211466FF00A0042
:10539800FBF796F9002211466FF00900FBF790F928
:1053A800002211466FF00400FBF78AF9002211462B
:1053B8006FF00300FBF784F9002211466FF001003B
:1053C800FBF77EF9002211464FF0FF30FBF778F922
:1053D80003B05DF804FB00BF004402587047FEE7C5
:1053E800FEE7FEE7FEE770477047704708B5FBF732
:1053F80025F9FBF7CAF908BD08B50248FBF78CFC8C
:1054080008BD00BF9002002008B50248FEF7BCFAAC
:1054180008BD00BF0802002010B41549D1F8883033
:1054280043F47003C1F88830124B1A6842F0010245
:105438001A6000221A611C680F48204018609A619F
:10544800DA611A629A62DA621A635A639A63DA63F1
:105458001A645A64186820F4802018601A660122B9
:10546800064B1A604FF000638B605DF8044B704781
:1054780000ED00E0004402587FEDF6EA0881005193
:1054880008B50E480E4B03604FF4E1334360002328
:105498008360C36003610C2242618361C36103625C
:1054A80043628362C36203634363FFF7E4F800B9AE
:1054B80008BD48210348FFF7A7FDF9E708030020C6
:1054C80000480040A47B00080268124B9A4200D0B2
:1054D800704700B587B0104BD3F8E82042F480221B
:1054E800C3F8E820D3F8E83003F480230093009B46
:1054F8004FF4407301930223029300230393049310
:105508000723059301A90548FCF788F807B05DF85B
:1055180004FB00BF0048004000440258000C025839
:1055280008B50D480D4B0360092343600222C26091
:1055380000230361436182610122C26103628362C5
:105548004262C2620363FCF764F900B908BD4621F0
:105558000348FFF759FDF9E78803002000000840D9
:10556800B47B00080268164B9A4200D0704730B5E9
:1055780087B04FF4E8530193022302930024039465
:1055880004940A2305930F4D01A92846FCF746F811
:105598004FF4007301930294039401A92846FCF781
:1055A8003DF8094BD3F8D82042F00062C3F8D82060
:1055B800D3F8D83003F000630093009B07B030BDE8
:1055C800000008400000025800440258DFF834D0B8
:1055D800002103E00C4B5B58435004310B480C4B43
:1055E80042189A42F6D30B4A02E0002342F8043BE1
:1055F800094B9A42F9D3FFF70FFF00F011F8FFF7B4
:1056080085FD704700000220D87B000800000020BC
:105618007C0000203C0100208C070020FEE70000F1
:1056280070B50D4E0D4CA41BA4100025A54209D140
:105638000B4E0C4C00F0A2F8A41BA4100025A542A8
:1056480005D170BD56F8253098470135EEE756F874
:10565800253098470135F2E7D07B0008D07B000859
:10566800D07B0008D47B0008024B0146186800F084
:105678000BB800BF1800002002440346934200D133
:10568800704703F8011BF9E770B5CD1C25F0030539
:1056980008350C2D38BF0C25002D064601DBA94224
:1056A80003D90C233360002070BD00F057F8214A5D
:1056B8001468214691B9204C23681BB9304600F084
:1056C8003DF820602946304600F038F8431C24D1C4
:1056D8000C233360304600F042F8E4E70B685B1BAC
:1056E80018D40B2B0FD90B60CD50CC18304600F0D6
:1056F80036F804F10B00231D20F00700C31AD3D09D
:105708005A42E250D0E78C424B6816BF6360136080
:105718000C46EBE70C464968CCE7C41C24F00304AC
:10572800A04205D0211A304600F008F80130CFD049
:105738002560DBE7600100206401002038B5064CD5
:10574800002305460846236000F00AF8431C02D1EE
:10575800236803B12B6038BD880700207047704765
:10576800044B1968024609B90349196018680244CC
:105778001A607047680100208C070020F8B500BF48
:10578800F8BC08BC9E467047F8B500BFF8BC08BC1A
:045798009E46704772
:10579C000006101600061016010002000400060098
:1057AC0008000A000C0010002000400080000001DE
:1057BC0000000000000000000000000000000000DD
:1057CC0000000000000000000000000000000000CD
:1057DC0000000000000000000000000000000000BD
:1057EC0000000000000000000000000000000000AD
:1057FC00000000000000000000000000000000009D
:10580C00000000000000000000000000000000008C
:10581C00000000000000000000000000000000007C
:10582C00000000000000000000700000700000701C
:10583C00000070000070000070000070000070002C
:10584C00007000007000007000007000007000001C
:10585C00600000600000000000000000000000007C
:10586C000000F00000F00000F00000F0000000006C
:10587C00000000000000000000000000000000001C
:10588C0000000000001C1E001C1E001C1E001C1E24
:10589C00001C1E001C1E001C1E001C1E001C1E00DA
:1058AC0000000000000000000000000000000000EC
:1058BC0000000000000000000000000000000000DC
:1058CC0000000000000000000000000000000000CC
:1058DC0000000000000000000000000000000000BC
:1058EC00000000000000000000E38000C38000C343
:1058FC000001C30001C7000187003FFFE03FFFE04C
:10590C00038E00030E00030C00070C00071C00069E
:10591C001C00FFFF80FFFF800C38000C38001C308F
:10592C00001C30001C700018700018600000000093
:10593C00000000000000000000006000006000009B
:10594C00600000600001FC0007FF000FFF001E63F9
:10595C00001C60001C60001C60001C60000E6000DD
:10596C000FE00003FC0000FF000067800063800074
:10597C0063800063800063801867801FFF001FFE38
:10598C000007F8000060000060000060000060008C
:10599C0000000000000000000000000000000000FB
:1059AC0000000000000000000000001F00003F800D
:1059BC000071C00060C00060C00060C00060C0002A
:1059CC0071C1E03F87C01F3E0000F80007C0001FF8
:1059DC000F00783F806071C00060C00060600060A4
:1059EC00600060E00071C0003F80000F000000000C
:1059FC00000000000000000000000000000000009B
:105A0C00000000000000000001F00007FC000FFC8B
:105A1C00000F04000E00000C00000E00000E000031
:105A2C000700000F80001FC00039E0E030E0E0709C
:105A3C0070E07038C0701CC0701FC0700F80780789
:105A4C00803E0F801FFFC00FF9C003E0E000000094
:105A5C00000000000000000000000000000000003A
:105A6C00000000000000F00000F00000F00000F06A
:105A7C000000F00000F00000F00000F00000F0006A
:105A8C00000000000000000000000000000000000A
:105A9C0000000000000000000000000000000000FA
:105AAC0000000000000000000000000000000000EA
:105ABC00000000000000000000001800003800008A
:105ACC00700000700000E00000E00000C00001C0A9
