:020000040800F2
:100000000050002079700008C96E0008D36E000807
:1000100000000000000000000000000000000000E0
:10002000000000000000000000000000D96E000881
:100030000000000000000000E36E0008ED6E000804
:10004000C9700008C9700008FD6E0008C97000087A
:10005000C9700008156F0008C97000082B6F0008F0
:10006000C9700008C9700008456F0008C970000811
:10007000C9700008C9700008C9700008C97000087C
:10008000C9700008C9700008C970000800000000AD
:10009000C9700008C9700008C9700008C97000085C
:1000A000C9700008C9700008C9700008696F0008AD
:1000B000E56F0008C970000800000000C970000862
:1000C00010B5064C2378002B07D1054B002B02D02E
:1000D000044800E000BF0123237010BD7406002017
:1000E00000000000F8950008044B10B5002B03D069
:1000F0000349044800E000BF10BDC04600000000F6
:1001000078060020F89500080023C25C0133002A1D
:10011000FBD1581E7047000002B4714649084900DF
:10012000095C49008E4402BC7047C0460022430867
:100130008B4274D303098B425FD3030A8B4244D3AF
:10014000030B8B4228D3030C8B420DD3FF220902F1
:1001500012BA030C8B4202D31212090265D0030BB0
:100160008B4219D300E0090AC30B8B4201D3CB03A6
:10017000C01A5241830B8B4201D38B03C01A5241E8
:10018000430B8B4201D34B03C01A5241030B8B42EA
:1001900001D30B03C01A5241C30A8B4201D3CB02D5
:1001A000C01A5241830A8B4201D38B02C01A5241BA
:1001B000430A8B4201D34B02C01A5241030A8B42BD
:1001C00001D30B02C01A5241CDD2C3098B4201D3D5
:1001D000CB01C01A524183098B4201D38B01C01A53
:1001E000524143098B4201D34B01C01A52410309CA
:1001F0008B4201D30B01C01A5241C3088B4201D379
:10020000CB00C01A524183088B4201D38B00C01A25
:10021000524143088B4201D34B00C01A5241411A4C
:1002200000D20146524110467047FFE701B5002059
:1002300000F0F0F802BDC0460029F7D076E770471D
:1002400003460B437FD4002243088B4274D3030937
:100250008B425FD3030A8B4244D3030B8B4228D3D8
:10026000030C8B420DD3FF22090212BA030C8B42FE
:1002700002D31212090265D0030B8B4219D300E09E
:10028000090AC30B8B4201D3CB03C01A5241830B23
:100290008B4201D38B03C01A5241430B8B4201D3D3
:1002A0004B03C01A5241030B8B4201D30B03C01AFC
:1002B0005241C30A8B4201D3CB02C01A5241830A76
:1002C0008B4201D38B02C01A5241430A8B4201D3A5
:1002D0004B02C01A5241030A8B4201D30B02C01ACF
:1002E0005241CDD2C3098B4201D3CB01C01A524136
:1002F00083098B4201D38B01C01A524143098B42BF
:1003000001D34B01C01A524103098B4201D30B01A7
:10031000C01A5241C3088B4201D3CB00C01A5241CC
:1003200083088B4201D38B00C01A524143088B4291
:1003300001D34B00C01A5241411A00D2014652412A
:10034000104670475DE0CA0F00D04942031000D349
:100350004042534000229C4603098B422DD3030A9E
:100360008B4212D3FC22890112BA030A8B420CD3AE
:10037000890192118B4208D3890192118B4204D3D7
:1003800089013AD0921100E08909C3098B4201D357
:10039000CB01C01A524183098B4201D38B01C01A91
:1003A000524143098B4201D34B01C01A5241030908
:1003B0008B4201D30B01C01A5241C3088B4201D3B7
:1003C000CB00C01A524183088B4201D38B00C01A64
:1003D0005241D9D243088B4201D34B00C01A52413B
:1003E000411A00D20146634652415B10104601D3C8
:1003F0004042002B00D54942704763465B1000D352
:10040000404201B5002000F005F802BD0029F8D0F7
:1004100016E770477047C0468446101C62468C46FB
:10042000191C634600E0C0461FB501F0D3FD00284B
:1004300001D40021C8421FBD10B501F02DFD40427E
:10044000013010BD10B501F0C5FD002801DB002012
:1004500010BD012010BDC04610B501F0BBFD002845
:1004600001DD002010BD012010BDC04610B501F017
:100470004DFD002801DC002010BD012010BDC0464C
:1004800010B501F043FD002801DA002010BD012065
:1004900010BDC0468446081C6146FFE71FB500F04A
:1004A00071FC002801D40021C8421FBD10B500F026
:1004B00003FC4042013010BD10B500F063FC002881
:1004C00001DB002010BD012010BDC04610B500F0BA
:1004D00059FC002801DD002010BD012010BDC046E0
:1004E00010B500F00FFC002801DC002010BD012039
:1004F00010BDC04610B500F005FC002801DA002050
:1005000010BD012010BDC046002B11D1002A0FD113
:10051000002900D1002802D00021C943081C07B4DB
:10052000024802A14018029003BDC046E9FEFFFF49
:1005300003B4684601B5029800F024F8019B9E467A
:1005400002B00CBC7047C04670B500220C4B0400D2
:100550000D00FFF795FF002804D12000290002F0CC
:1005600051FB70BD064B00222000290002F014F858
:1005700002F048FB80231B069C466044F1E7C0461E
:100580000000E041F0B557464E464546DE46E0B530
:10059000040083B00D00924699468B422FD82CD090
:1005A0004946504602F084FC29000600200002F073
:1005B0007FFC331A9846203B9B4600D574E0534697
:1005C0005A4693401F005346424693401E00AF4296
:1005D00029D826D05B46A41BBD41002B00DA79E068
:1005E000002200230092019301235A469340019375
:1005F000012342469340009319E08242D0D9002261
:100600000023009201930C9B002B01D01C605D60C5
:100610000098019903B03CBC90469946A246AB466F
:10062000F0BDA342D6D90022002300920193434695
:10063000002BE8D0FB0772081A4346467B080EE001
:10064000AB4201D1A2420CD8A41A9D410120241929
:100650006D410021013E24184D41002E06D0AB42D1
:10066000EED9013E24196D41002EF8D15B46009869
:10067000019900196941002B22DB2B005A46D34017
:100680002A004446E2401C005B461500002B2CDB90
:1006900026009E40330026004746BE403200801AA6
:1006A000994100900191AEE7424620239B1A5246A1
:1006B000DA40414613004A468A4017001F4382E74A
:1006C000424620239B1A2A0046469A402300F340C4
:1006D0001343D5E74246202300219B1A00220091B4
:1006E00001920122DA40019282E74246202326004D
:1006F0009B1ADE402F00B446974066463B003343CA
:10070000C9E7C046F0B5C6464E024702760A7B0AE4
:100710004400C50FF7004800984600B5240E2A0093
:10072000DB00000EC90FBC468D4267D0221A002A9A
:1007300000DCA5E000283AD1002F00D193E0511E43
:10074000002900D0BCE00124DB1B5A0146D59B01E7
:100750009E09300002F08EFB05388640844200DDA1
:100760009DE0041B320020200134E240041BA6401F
:1007700033005E1EB341002413435A0704D00F22F6
:100780001A40042A00D004335A0129D50134FF2C21
:1007900000D181E02A009B015B0AE4B25B02E40520
:1007A000580AD2072043104304BC9046F0BDFF2CEA
:1007B000E3D080213800C904084384461B2A00DDA9
:1007C00082E020206146D140821A604690400200BB
:1007D000501E82410A439B1A5A01B8D45A07CED1FF
:1007E000DE082A00FF2C3AD1002E00D1AEE0802393
:1007F000DB0333435B025B0AFF24CFE7211A0029A6
:1008000052DD002831D0FF2CB7D080203E00C0043C
:100810000643B4461B2900DDAAE020266046C840F6
:10082000711A66468E4031004E1EB14101435B187D
:100830005901D3D50134FF2C00D187E0012278493A
:100840001A405B080B40134397E7002C00D0A7E049
:10085000002B00D0B6E03B1E62D1002600227302BE
:100860005B0AE4B29AE7140087E7002F4DD0481ED8
:10087000002857D1634401245A01AFD50224DDE793
:10088000002A24D1621CD2B2012ADEDDDE1B7201F5
:1008900035D5FE1A0D005CE72A0000237EE7330001
:1008A000604A241A134068E7002963D1611CC8B26A
:1008B00001284EDDFF2949D063445B080C005CE74A
:1008C000FF2A41D00A0079E701229B1A84E7002C15
:1008D0001DD0FF2822D08024E404524223431B2A47
:1008E00000DD8AE01C002025D440AA1A93405A1E3D
:1008F0009341234362460400D31A0D0025E7002EDE
:1009000000D026E700220024A9E70C0035E7002BE1
:100910004DD0D243002AEDD0FF28E0D16346FF241A
:100920000D002AE7FF290FD0010073E7002B61D0EB
:10093000FF24002F00D120E780224146D20311423C
:1009400002D0164200D13B00FF2416E7FF2400230B
:1009500024E7002CEAD1002B58D0002F00D10CE75F
:1009600063445A0100D439E72E4A0C00134004E7CF
:1009700001215CE7002C1ED1002B40D0C943002987
:100980000BD0FF2836D01B2947DC1C002026CC408A
:10099000711A8B40591E8B4123436344040047E77F
:1009A000002B18D13B1E2DD00D00FF24E5E63B00A7
:1009B00004000D00E1E6FF281CD08024E404494235
:1009C0002343E0E7002F00D1D7E6DE1B72011FD5DD
:1009D000FB1A0D00D1E6FF24002F00D1CDE68022C6
:1009E0004046D2031042AFD01642ADD13B000D00BD
:1009F000FF24C2E66346FF24BFE601237AE73B00FB
:100A00000400BAE680260022F603F0E63B00B4E6D6
:100A1000331E00D0E2E6002221E70123BDE7C046F5
:100A2000FFFFFF7DFFFFFFFBF0B557464E46DE465A
:100A30004546E0B544024300C60F83B00F1C640A6C
:100A40001B0EB24653D0FF2B27D08022E400D204E5
:100A500014437F22524290469844002399469B4675
:100A60007D027800FB0F6D0A000E009324D0FF2852
:100A700046D080230021ED00DB041D437F3847462C
:100A8000381A4F460F43BF00B9463300009A874FCC
:100A900053404A46BA5801939746002C4ED108233A
:100AA0009946F7339846FD3B9B467D027800FB0F45
:100AB0006D0A000E0093DAD1002D26D1002001210D
:100AC0003300009A7A4F53404246101A4A460A436E
:100AD0009200BA581D009746009B2C009A468B4600
:100AE0005B46022B31D15346FF21002438E0002C15
:100AF00017D1042399460023984601339B46AFE75C
:100B0000FF20002D0BD10221DAE7280002F0B2F914
:100B1000431F9D4076235B42181A0021AFE7032153
:100B2000ADE7200002F0A6F9431F9C4076235B420C
:100B30001B1A9846002399469B4691E70C23994639
:100B4000F3339846FC3B9B468AE7032B00D1A5E094
:100B50005546012B00D081E00123002100242B40C9
:100B60006402C905600ADB070843184303B03CBCB4
:100B700090469946A246AB46F0BD80240023E4038C
:100B8000FF21EDE7FF210024EAE70123591A1B2981
:100B900066DD019A134000210024E1E78023DB0396
:100BA0001C4238D01D4251D01C436402640A3300F9
:100BB000FF21D5E763016C01A3423BD21B26002134
:100BC000013801251F0049005B00002F01DB9C421A
:100BD00001D81B1B2943013E002EF3D11C00631ECC
:100BE0009C410C4301007F310029CEDD630704D016
:100BF0000F232340042B00D00434230103D501002C
:100C00002C4B80311C40FE290DDD0123019AFF2170
:100C100013400024A4E78023DB031C436402640A1E
:100C20003300FF219CE70123019AA401640AC9B2A1
:100C3000134095E71B1B1A260121C2E7009B8B4638
:100C40009A4600244CE76302E5D500258024E4039E
:100C50002C436402640A009BFF2181E70195C1E7F0
:100C600023002020CB40411A8C40611E8C411C4344
:100C7000630704D00F232340042B00D00434630106
:100C800005D50123019A01211340002468E70123BF
:100C9000019AA401640A1340002161E78023DB0369
:100CA0001C436402640A5346FF2159E71896000862
:100CB00058960008FFFFFFF770B5420045024E024C
:100CC0004C00C30F6D0A120E760A240EC90F0120C4
:100CD000FF2A06D0FF2C03D0A24201D1B54206D094
:100CE00070BD002DFCD1FF2CFAD1002EF8D18B4223
:100CF00006D00120002AF3D12800451EA841EFE7C5
:100D00000020EDE7F0B5420045024C02C30F480059
:100D10006D0A120E640A000EC90FFF2A1ED0FF28AA
:100D200021D0002A0AD16E426E41F6B200280FD1BE
:100D3000002C0DD10020002D09D005E0002801D1A4
:100D4000002C01D08B4211D0012158420843F0BD44
:100D5000002EF7D0012001390843F8E7002DDED03E
:100D600002204042F3E7002CDBD0F9E78242EBDCC3
:100D700004DBA542E8D80020A542E8D20121581E94
:100D80000843E4E7F0B542004D024C004602760A03
:100D9000120EC30F6D0A240EC90FFF2A16D0FF2CA6
:100DA00018D0002A0AD170427041C0B2002C15D070
:100DB000002805D0012001390843F0BD002C13D0D4
:100DC000994214D001205B421843F6E70220002E1E
:100DD000F3D1E4E70220002DEFD1E2E7002DE7D1C7
:100DE0000020002EE9D0EDE7002DE9D1EAE7A2428C
:100DF00006DCDFDBAE4203D80020AE42DAD3DCE70C
:100E0000012049420843D8E7F0B54F46D64646464A
:100E10004400C0B5C20F47024802400A84466646F5
:100E20007B0A4800C90F9A46240E1500DB00000E0D
:100E30008946F600FF2800D18FE001214F464F4040
:100E40003900914266D0221A002A00DC9DE0002879
:100E50003DD1002E00D18BE0511E002900D0B5E01D
:100E600001249B1B5A0144D59B019F09380002F0C5
:100E700001F805388740844200DD96E0041B3A0003
:100E800020200134E240041BA7403B005F1EBB4111
:100E9000002413435A0704D00F221A40042A00D01A
:100EA00004335A0127D50134FF2C00D179E0012207
:100EB0009B015B0AE4B22A405B02E405580AD207B0
:100EC000204310431CBC90469946A246F0BDFF2C1F
:100ED000E0D08021C9040E431B2A7BDC3100202096
:100EE000D140821A9640721E96410E439B1B5A01B6
:100EF000BAD45A07D0D10122DF082A40FF2C33D1BF
:100F0000002F00D1A8E08023DB033B435B025B0A98
:100F1000FF24D1E7211A00294CDD00282AD0FF2C1C
:100F2000B8D08020C00406431B2900DDAFE03000AC
:100F30002027C840791A8E40711E8E4106439B19A6
:100F40005901D6D50134FF2C00D185E001227A4920
:100F50001A405B080B4013439CE7002E00D070E75B
:100F60006BE73B1EC5D100227B025B0AE4B2A3E71C
:100F700014008FE7002E4DD0481E002857D19B1932
:100F800001245A01B5D50224E0E7002A25D1621CCC
:100F9000D2B2012A72DD9F1B7A0135D5F71A0D00F6
:100FA00064E7012200232A4086E73B00634A241AB3
:100FB00013406FE700296CD1611CC8B201284EDDD7
:100FC000FF2949D09B195B080C0063E7FF2A41D039
:100FD0000A0081E701269B1B89E7002C1CD0FF2813
:100FE00021D08024E404524223431B2A00DD96E0F2
:100FF0001C002025D440AA1A93405A1E9341234333
:10100000F31A04000D002DE7002F00D02EE7002278
:101010000024A9E70C003DE7002B58D0D243002A5A
:10102000EED0FF28E1D13300FF240D0032E7FF2985
:1010300010D0010078E7002B6ED0FF24002E00D1E5
:1010400028E780225146D203114203D06146114263
:1010500000D13300FF241DE7FF2400232CE7002CE0
:10106000E9D1002B63D0002E00D113E79B195A0160
:1010700000D43EE7314A0C0013400BE7002C1ED190
:10108000002B2FD1002E4FD033000D0002E7012698
:1010900055E7002C1FD1002B43D0C94300290BD0AA
:1010A000FF2839D01B2944DC1C002027CC40791AAA
:1010B0008B40591E8B4123439B19040040E7002BB2
:1010C0001AD1002E24D180270022FF031BE7330012
:1010D00004000D00DEE6FF281ED08024E40449420F
:1010E0002343DFE7002E00D1D4E69F1B7A0100D412
:1010F00037E7F31A0D00CDE6FF24002E00D1C9E634
:1011000080225046D2031042A4D060461042A1D1A2
:1011100033000D00FF24BDE63300FF24BAE60123AF
:101120006EE733000400B5E6002700221CE7330019
:10113000B0E60123C0E7C046FFFFFF7DFFFFFFFBD6
:1011400042024B0240004900520A000E5B0A090E9F
:10115000FF2803D00020FF2906D07047FE38002A60
:10116000FBD10020FF29F8D11800431E9841F4E775
:1011700070B5002830D0C317C4185C40C50F2000DC
:1011800001F078FE9E231B1A962B0DDC9622D21AB4
:1011900094402A006402640ADBB26402DB05600A40
:1011A000D2071843104370BD992B19DC9922D21A2B
:1011B000002A29DD94402200144C1440510704D029
:1011C0000F210A40042A00D00434620113D4A40180
:1011D000640ADBB22A00E0E7002200230024DCE7F7
:1011E00005222100121AD140B922D21A9440621E5F
:1011F00094410C43DAE7054B2A001C409F23A401CD
:101200001B1A640ADBB2C8E72200D5E7FFFFFFFB29
:10121000F8B54546DE4657464E460C03E0B54E004F
:10122000C90F88460D00610A440F0C43C70019031B
:101230005800DB0F9B464B0A510F0B43760D400DB8
:101240001900D200D84500D1AEE0351A002D00DCDF
:10125000F6E000280FD1134300D1DBE06B1E002B1A
:1012600000D037E1BA1A9742BF41641A7F42E41BAB
:101270000126170024E0C64B9E424DD080231B045C
:101280001943382D00DD07E11F2D00DD38E1202056
:10129000431B9A460B00504683409946130048462C
:1012A000EB401843030050468240501E8241E94003
:1012B0001A43BA1A611A9742A441170064420C1BE0
:1012C000230262D56402650A002D00D1DFE0280008
:1012D00001F0D0FD0300083B1F2B00DDD2E02022EF
:1012E0003C00D21A9D40D4409F4025439E4200DDE1
:1012F000C4E09E1B731C1F2B00DDF1E02022380090
:101300002900D21AD840914097402C000143781E02
:101310008741DC4000260F437B0709D00F233B4069
:10132000042B05D03B1DBB42BF417F42E4191F0087
:1013300023022CD5964B01369E4200D19AE04546B9
:10134000944BFF081C406007760564020743240B9A
:10135000760D00212403230B0C0D8F4A24051C431A
:101360001440330523435B00ED075B082B43380033
:1013700019003CBC90469946A246AB46F8BD64466F
:10138000044300D111E2040067467B07C6D14546FD
:101390006007FF080743E4087D4B9E4230D02403DA
:1013A0007605240B760DD4E7331A9A46002B78DDA8
:1013B000002831D076488642AED080200004014318
:1013C0005346382B00DCE9E00A43511E8A410021D4
:1013D000D219BA42BF4109197C4217000C192302E5
:1013E000D3D56B4B01369E4200D13AE10120694BC7
:1013F0001C407B0807401F43E007074364088BE756
:1014000023003B4300D1CBE1802212031443240389
:10141000240B9EE72E007FE70800104300D1B4E0C4
:10142000581E002800D0DEE0BA18BA429B4164186A
:101430005B42E418170001262302A6D50226D5E751
:10144000002D6ED1701C4005400D012800DCF9E034
:10145000B81A844687428041E51A40422D1A280274
:1014600000D489E0D71BBA4292411C1B5242A51AF4
:10147000D84629E74546002400276AE7454CF61A76
:101480002C4049E73D002838854000272EE73800EA
:1014900001F0F0FC20301DE70A43511E8A41002173
:1014A00007E7002B00D0F3E0701C43055B0D012B18
:1014B00000DCADE0364B984200D1D1E0BA18BA4218
:1014C000BF4164187F42E419E707520817436408D4
:1014D000060021E72E48854200D193E01D00D0E6AA
:1014E00029001F3EF140202B00D18DE04022D31A6D
:1014F0009D402F437D1EAF4100240F43002644E74B
:101500002B000800203BD8400300202D00D17DE0B7
:101510004020451BA9400A43511E8A4100211A431D
:10152000C7E6002E50D01A4EB04257D080266B42EC
:101530009946360434434B46382B00DDD6E01F2B4A
:1015400000DD35E12026F51A2600AE40B2463E0009
:10155000DE40AC46350056462E436546AF407D1E04
:10156000AF41DC403743D71BBA4292410C1B524279
:10157000A41A0600D846A3E6644667462C4300D06A
:10158000A2E600250026002706E71E00C4E6C046A6
:10159000FF070000FFFF7FFFFFFF0F801F2B63DCB3
:1015A0002020C31A080098409C46834653461000EA
:1015B000D84003005846184363469A40531E9A4148
:1015C00053460243D94003E726003E4306D0EB438F
:1015D0009946002BC7D0944EB042ACD10C001700F6
:1015E0000600D84698E6904B9A450BD08246E7E62F
:1015F000002800D09EE01800104300D1E9E01C0054
:101600001700D846884E87E6002572E7002182E75A
:1016100023003B43002E00D0ABE0002B00D1E7E0DD
:101620000B00134300D177E6BA18BA42BF416418E1
:101630007F42E419230200D4F2E07C4B17001C40E7
:10164000060069E620003843002ED1D100285BD186
:101650001C00144300D1A8E01C001700D8465BE62C
:1016600006000024002797E650460B002038C340B0
:1016700099465346202B00D195E0402350461B1A33
:1016800099400A43511E8A414B4600211A439FE666
:10169000002E30D126003E4367D0DB439A46002B14
:1016A0001CD0614EB04260D05346382B00DD96E02E
:1016B0001F2B00DD9FE02026F31A26009E409C464B
:1016C000B34653463E00DE4033005E461E4363464B
:1016D0009F407B1E9F415346DC403743BF189742D3
:1016E000924164185242A418060078E627437C1EF3
:1016F000A741002437E74C4EB04236D080265B42EB
:1017000036049A463443CFE71800104300D103E66D
:10171000B81A84466745AD41E01A6D42401B050288
:1017200000D42CE6D71BBA4292411C1B5242A41A89
:10173000D846F1E51800104300D163E7F8086707C1
:1017400007438020E4080003044208D0DD08054276
:1017500005D1D208590711430F002C00D8467B0F42
:10176000E4001C43FF00304ED6E50C0017000600D5
:10177000D2E5002B38D00B00134300D142E7F80824
:10178000670707438020E40800030442E7D0CB0842
:101790000342E4D1D208490711430F001C00DEE7E1
:1017A00000270024D5E500216BE700250027F3E59D
:1017B0004E462500203EF5404B462E00202B2DD0D6
:1017C0004025ED1AAC4027437C1EA7410024374337
:1017D000C9E6802400252403134E0027DCE52743B7
:1017E0007C1EA741002479E70C0017000E4E93E5FC
:1017F0000C00170090E556462300203EF340994622
:101800005346202B0ED0402356469B1B9C4027431B
:101810007C1EA7414B4600241F435FE70024D2E70C
:101820001700B2E50024F2E7FF070000FFFF7FFF8B
:10183000F0B557464546DE464E46E0B54C000E0331
:1018400087B0834692461D008046360B640DCF0F4D
:10185000002C4FD06F4B9C4235D08023420F1B048D
:10186000F600134333439946C30098466A4B00265B
:101870009C460023644403932B031B0B9B466B0085
:10188000ED0F50465B0D01955ED0624A934253D0F6
:101890005A46D1008022400F120402430A43934665
:1018A0005246D1005C4A94460022634438006840A6
:1018B00084460290E41A16430F2E00D9B4E0574B29
:1018C000B6009B599F460300334399466CD10023D1
:1018D0009846023308260393CEE7CB464146039A47
:1018E0000197022A65D1019B4A4C9C4600230022A5
:1018F00098466BE00300334399464ED0002E00D14A
:10190000BCE1300001F0B6FA03000B3B1C2B00DDFC
:10191000ACE11D22D31A5A460100DA4008398E4044
:101920001300334399465B468B40984600233C4C5A
:101930000026241A03939FE751465A46114329D1A2
:10194000002293460232B1E7594601431ED05B465E
:10195000002B00D19EE1584601F08CFA03000B3BAE
:101960001C2B00DD8FE102005946083A91408B465E
:101970001D21CB1A5146D9400B0059460B43514605
:101980009B469140264B00221B1A8FE70023012221
:101990009B468BE75146032288E700239846013394
:1019A00004260024039367E70323B14603930C2620
:1019B00062E7032A00D15CE2019B012A00D0E4E146
:1019C00013409C4600230024002298460021120365
:1019D000130B0A0D12051A432305124C40462240F0
:1019E000134362465B00D2075B081343190007B03C
:1019F0003CBC90469946A246AB46F0BD00238022EF
:101A00009C4612039846034CE0E70023014C002259
:101A10009846DBE7FF07000001FCFFFF98960008EF
:101A20000DFCFFFFFFFF0F80D94500D939E100D140
:101A300034E1002346464D469A46013C5B460A0E79
:101A40001B021A430B02170C039313041B0C3900DF
:101A5000280090460193FEF769FB0200019B834634
:101A60005A43280039009146FEF7E6FB350C09047D
:101A70000D43A9450DD95B464544013BA84500D916
:101A80003AE1A94500D837E102235B429C46454430
:101A9000E3444B46EB1A390018000493FEF746FB6B
:101AA000019B05004343390004989946FEF7C4FBA7
:101AB000330409041B0C0B43994509D943446A1E9E
:101AC000984500D91AE1994500D817E1023D4344F1
:101AD0004A469B1A5A4612042A4303999346100C0D
:101AE0000A0C914609045A46090C4E460D00120490
:101AF000120C4543059151437243704352190E0C29
:101B0000B218954203D980256D02AC466044150C8D
:101B100009041204090C28185218834200D2CEE09E
:101B200000D1C8E01D1A53469E1AB2459241524256
:101B3000AB1A9A46984500D117E139001800FEF714
:101B4000F5FA019B05004343390050460493FEF724
:101B500073FB04980B04310C1943884209D94144A2
:101B60006B1E884500D907E1884200D804E1023D98
:101B70004144049BCB1A180039000493FEF7D6FAAF
:101B8000019B82464343390004980193FEF754FBBE
:101B900001980B043104090C194388420DD95346AE
:101BA0004144013B884500D9E8E0884200D8E5E09F
:101BB00002235B429C464144E244019B2D04CE1A21
:101BC00051462943059D4F462A000B04080C1B0C67
:101BD0005A4345437B4378435B19170CFB189D42DE
:101BE00003D980256D02AC4660441D0C12041B0411
:101BF000120C28189B18864200D293E000D18EE088
:101C000001231943A04BE318002B00DC99E04A079D
:101C100000D09EE05A46D20106D55A469B4B1A4048
:101C200080239346DB00E318994A934268DD012341
:101C3000029A984C1A400023944698460022C5E622
:101C400080224B46120313420AD05B46134206D150
:101C50001A431203120BAC4688468E4CB6E64B462E
:101C60001A431203120BBC468A4CAFE603005A46D5
:101C7000283B9A4000239146984657E6584601F083
:101C8000F9F8203040E603005246283B9A400021F4
:101C9000934677E601F0EEF820305FE6884500D203
:101CA000C7E64B46DE075D0843465B081E434346D6
:101CB000DB079A46C2E60025924500D333E7039E30
:101CC0005946B446E244B245AD416D424544EB1835
:101CD0000139984507D2984200D97FE000D1BCE095
:101CE0001D1A8B461FE79845FAD1039D5545F2D939
:101CF00043468B461D1A16E79B46CAE61500E7E6E3
:101D00005A46C90852070A435B0590465C0D5A467D
:101D10000123029952021940120B8C4656E6002B01
:101D200000D16FE746444A1EB04529D911008642CA
:101D300000D065E7039A934200D061E762E7012192
:101D400049420120C21A382A21DD029B03409C46E9
:101D500038E60F220A40042A00D15BE70A00111D71
:101D6000914292415242934454E7474BE318002B6F
:101D7000E5DD01225242F2E71D00FAE69A461CE731
:101D8000B04239D86ED011003AE702933AE71F2AE1
:101D90003CDC20239B1A0C005846994098404B1E6F
:101DA00099415B46D440D340204308431A0043077F
:101DB00009D00F230340042B05D00100081D8842E1
:101DC0009B415B42D21813023AD50123029A0124A7
:101DD0001A400023944698460022F7E50221494222
:101DE0008C46039DE344AC46E244AA45AD416D42B6
:101DF0004544ED182D1A96E68A1E03994D008D4232
:101E0000894149424144761803958FE71F2040429B
:101E1000C31A5846D8400300202A28D040205D46E7
:101E2000821A954029434A1E9141194307230022F3
:101E30000B4009D00F2300220B400800042BBDD11A
:101E4000010053075202120BC908194301238846A7
:101E50000299002419408C46B8E55245BED88B46FD
:101E6000002560E6039D9D42C6D3110062E7002570
:101E7000D8E780225B4612031A43019B1203120B20
:101E80009C468846034CA1E5FF030000FFFFFFFED0
:101E9000FE070000FF070000F0B54F464646D64655
:101EA0005C00C0B51F03DB0F9A46174B0E034D00B5
:101EB00084468046360B6D0DC90F91463F0B640D6D
:101EC00001209D4208D09C4201D0A5420BD01CBCF1
:101ED00090469946A246F0BD63463343F7D1AC42E3
:101EE000F5D13A43F3D10120BE42F0D1C845EED13D
:101EF000514507D0002DEAD163461E433000461EEF
:101F0000B041E4E70020E2E7FF070000F0B54546F6
:101F1000DE4657464E46E0B51F033D0B2C4F0E03E1
:101F20004C00AB465D008446360B640DC90F9046ED
:101F30006D0DDB0FBC422AD0254FBD422DD0002CA9
:101F40000FD130430700814678427841C0B2002D5E
:101F500017D15F463A4314D14B460020002B0AD0DC
:101F600006E0002D02D15846024301D0994218D014
:101F70004842012108433CBC90469946A246AB46E4
:101F8000F0BD0028F2D00120013B1843F3E73700F1
:101F90000743D1D002204042EDE75F461743CED041
:101FA000F8E7AC42E4DC03DA481E01210843E2E72B
:101FB0005E45DDD806D000205E45DCD20123481EF8
:101FC0001843D8E7C445D3D80020C445F6D3D2E798
:101FD000FF070000F0B54E464546DE4657465C001A
:101FE000E0B51F03DB0F99462A4B0E034D00C90FC6
:101FF0008446360B6D0D8B4690463F0B640D9D421B
:1020000020D0244B9C4222D0002D12D13043434299
:102010004341DBB2002C1FD0002B0CD04B460120DB
:10202000013B034318003CBC90469946A246AB4690
:10203000F0BD002C16D0CB4517D05B46594201238A
:102040000B43EFE7310002230143EBD1D9E739001D
:1020500002231143E6D1D7E73A43DDD1002300281C
:10206000E0D0EAE73A43E6D1E7E7A542E5DC05DB65
:10207000BE42E2D807D00023BE42D3D25946012344
:1020800001390B43CEE7C445D7D80023C445F5D367
:10209000C8E7C046FF070000F0B557464546DE4694
:1020A0004E46E0B50C0398464E00230B87B0070060
:1020B00092469B46760DCD0F002E6BD06D4B9E4207
:1020C00035D080245B46420F2404DB0014431C43BC
:1020D000C3009946684BA3469C46002300276644EC
:1020E000029343461C035A00DB0F5046240B520D4B
:1020F000984600D176E05F4B9A426DD08023410F25
:102100001B040B435C49E4008C461C43C3000020C5
:1021100062444146B6186940721C019194460743D7
:102120000F2F00D9B0E0554ABF00D25997465B4601
:102130000343994600D087E000239B4602330827DB
:102140000293CEE742460192022867D0032800D1CD
:102150000EE2012800D062E100230024002299460B
:1021600001990140CDB2002112030B0D120B1B058A
:102170001343434A240513401C436400ED076408DD
:102180002C434846210007B03CBC90469946A246E5
:10219000AB46F0BD034399464FD05B46002B00D1C0
:1021A00089E1584600F066FE03000B3B1C2B00DD66
:1021B0007AE11D22D31A3A0001005C46DA40083960
:1021C0008C4013008F4023439B46B94600232D4E7D
:1021D0000027361A029384E7534623432AD100246A
:1021E000022096E75346234320D0002C00D157E12C
:1021F000200000F03FFE03000B3B1C2B00DD49E1FB
:102200001D21CB1A51460200D9405346083A94404A
:1022100093400C431B4A121A00207AE70125019BC8
:10222000144C1D400023002299469CE70024002204
:1022300001206EE7534603206BE700239B460133E2
:102240000427002602934CE7032381460C270293C0
:1022500047E780220023002512039946054C82E7B8
:102260005C464B4602986FE75C464B4601950298E8
:102270006AE7C046FF07000001FCFFFFD896000890
:10228000FFFF0F800DFCFFFF4A464946170C1A0C52
:102290001B041B0C08041900000C41431500884660
:1022A00019007D437943039589462900150045436C
:1022B0004D44029545462D0CAA46029D5544A9451C
:1022C00006D98A46802149028946CA44514603916B
:1022D000290C0491414609042D04090C8846290063
:1022E000250C24044144240C0591210041438846D7
:1022F000210079438A466843414650448146080C90
:1023000048446F43824503D98021490289464F449E
:10231000010C894639004944029141460F04049951
:102320003F0C88460004C019804441460491594638
:102330000F0C0904090C884659438A463900514359
:10234000894641464A435146090C8B467B43D21885
:102350005A44934203D980235B029B46D944514699
:102360000904090C8A46414661437C43130C12045C
:102370004B445244A1468A463C0041466C434D437F
:1023800051464D440F0C7D19A94503D980214902BE
:1023900088464444049F0399B84641448B4683458C
:1023A000804141428846514608042F04000C3F18E2
:1023B0005846029910188946904292414F44BA46B5
:1023C000524299469346C244D144CB448F42BF41C6
:1023D000C245894199459B41934592417F4249427B
:1023E0002D0C52420F435B4213437F19FF185B468B
:1023F0003C19DB0D059A64021C43430213435D1E26
:10240000AB415A46C00D034352021343E20156D575
:1024100001205A0803401343E207134364085A4853
:10242000604400284DDD5A0709D00F221A40042AC3
:1024300005D01A1D9A429B415B42E4181300E20149
:1024400004D58020514AC00014406044504A904254
:1024500000DDE3E60125DB0862071A436402019B05
:102460009146220B4405640D1D407CE680225946AE
:102470001203114208D0144206D122431203120B58
:1024800045469946434C6EE65B461A431203120BCF
:10249000404C68E603005446283B9C400023B9E6C4
:1024A00000F0E8FC2030A6E60300283B9F40002314
:1024B000BB4699468AE600F0DDFC203074E6B4465F
:1024C000ADE701252A1A382A06DD019B00241D40AC
:1024D00000230022994646E61F2A21DC2025200001
:1024E000AD1A1E00AB40A840D6405D1EAB41304344
:1024F0001843D440430709D00F230340042B05D0D1
:102500000300181D98429B415B42E418230221D529
:102510000125019B01241D4000230022994622E64B
:102520001F2521006D42281AC1400800202A1DD015
:102530005F35AA1A944023435C1EA3410725034339
:102540001D400022002D09D00F2200241A4018003F
:10255000042AD6D1030065076402220BDB082B4353
:1025600001259946019B00241D40FCE50024E2E77B
:10257000802201251203224301991203120B0D4000
:102580009946044CEFE5C046FF030000FFFFFFFE45
:10259000FE070000FF070000F0B54646D6464F464E
:1025A0000C03C0B5CD0F4E00610A440F0C43C100AF
:1025B0005800400D84468A460F001903500F490AFF
:1025C0000143C648760DA846DB0FD200844500D1F2
:1025D000D8E001204340AB4200D1A6E06046351A66
:1025E000002D00DC05E1002810D10B00134300D1C1
:1025F000D7E06B1E002B00D04BE153469F1ABA4523
:102600008041641A4042241A01261EE0B34B9E42C8
:1026100048D080231B041943382D00DD19E11F2DFC
:1026200000DD4CE120230F005B1B10009A409F400F
:10263000E840531E9A41E940074317435346DF1BC6
:10264000611ABA45A44164420C1B230200D4C5E0C0
:102650006402650A002D00D1F6E0280000F00AFCB3
:102660000300083B1F2B00DDE9E020223C00D21ACA
:102670009D40D4409F4025439E4200DDDBE09E1BF1
:10268000731C1F2B00DD0AE120223800D21A29001A
:1026900097402C009140D8407A1E9741DC4000269C
:1026A00001430F437B0709D00F233B40042B05D088
:1026B0003B1DBB42BF417F42E4191F00230225D5C9
:1026C000864B01369E4200D1AFE0854B01251C4070
:1026D00043466207FF08640276051743240B760D14
:1026E0001D4000212403230B0C0D7E4A24051C43AE
:1026F0001440330523435B00ED075B082B43380090
:1027000019001CBC90469946A246F0BD01254346DF
:102710006207FF081743E4081D40704B9E4236D005
:1027200024037605240B760DDBE76346F31A002BB2
:1027300000DC94E06046002835D068488642B1D07D
:1027400080273F043943382B00DCFDE00A431700A3
:1027500000217A1E97415744574580410919444248
:102760000C1923023AD55D4B01369E4200D14BE154
:1027700001225B4B1C407B0817401F43E2071743B5
:1027800064088FE70800104300D024E721E7230006
:102790003B4300D1B9E18022120314432403240BEC
:1027A0009FE72E007EE70800104300D1CAE0581EC4
:1027B0008446002800D0E7E0524452458041641826
:1027C0004042241817000126230207D50226CFE72E
:1027D00064462C4300D1B3E12C0067467B0700D050
:1027E00062E76307FF081F4301254346E4081D40D5
:1027F00093E7002D78D1751C6D056D0D012D00DC62
:10280000F2E05046801A8245BF41651A7F42ED1BB7
:102810008446280200D48CE05046171ABA429241EE
:102820000C1B5542651B984614E7012543460024BE
:102830001D40002755E72A4CF61A2C4032E73D0090
:1028400028388540002717E7380000F013FB2030B8
:1028500006E70A43170000217A1E9741EEE6002B97
:1028600000D0E5E0731C9C465B055B0D012B00DC92
:102870009FE01A4B9C4500D1C5E05244524580412F
:10288000641840422418E707520817436408664654
:1028900008E71248854200D185E01D00BCE629000A
:1028A0001F3EF140202B00D17FE04022D31A9D40F3
:1028B0002F437D1EAF4100240F4300268EE72B00DF
:1028C0000F00203BDF40202D71D040235D1BA9402D
:1028D0000A43511E8A4100211743AFE6FF0700005B
:1028E000FFFF7FFFFFFF0F80002E3ED0B34EB445A9
:1028F00045D0802636046D423443382D00DDA8E0F3
:102900001F2D00DD1FE1202627005046761BB74013
:10291000E84007435046B040461EB041EC403843C3
:10292000171ABA4292410C1B5242A41A66469846A4
:102930008BE6644667462C4300D08BE600250026D4
:102940000027EAE61E00ADE61F2B60DC2027F81A00
:102950000F00844687401000D840074360468240FD
:10296000501E8241D9401743F5E6260050460643E3
:1029700005D0ED43002DD3D0904EB445BDD10C0011
:102980001700664698468DE68C4883420BD0634616
:10299000D9E6002D00D096E00800104300D1E2E017
:1029A0000C0017009846854E7CE6002580E7002144
:1029B0008EE7230050460343002E00D0A8E0002BF2
:1029C00000D1DEE00B00134300D16BE652445245C8
:1029D00080416418404224181700230200D4FDE609
:1029E000774B66461C405DE6250050460543002EA9
:1029F000CFD1002D4FD10C00144300D1A0E00C002A
:102A0000170098464EE666460024002785E61F001C
:102A10000800203FF8400700202B00D18EE0402026
:102A2000C31A99400A43511E8A410021174392E676
:102A3000002E14D126005046064362D0DB43002B03
:102A40005CD187189742924164185242A418664696
:102A500087E650462043441EA041002460E7574EBD
:102A6000B4454ED0802636045B423443382B00DD1B
:102A70007FE01F2B00DD8BE0202627005046F61A52
:102A8000B740D84007435046B040461EB0410743C8
:102A9000DC40BF18D6E70D00154300D102E65046D2
:102AA000801A8245BF41651A7F42ED1B8446280289
:102AB00000D48DE65046171ABA4292410C1B52427E
:102AC000A41A9846EEE50D00154300D16BE7504679
:102AD0006707C00807438020E4080003044207D0CA
:102AE000CD08054204D12C009846D70849070F436A
:102AF0007B0FE4001C43FF00304ED3E52F4EB4455E
:102B0000B4D10C0017006646CCE500270024E8E5A8
:102B1000002B39D00B00134300D144E7C0086707EE
:102B200007438020E40800030442E1D0CB080342BD
:102B3000DED1D70849070F431C00D9E7002171E710
:102B400000250027E9E52E002700203EF740202D34
:102B50002FD04026751BAC4050462043441EA04158
:102B600000243843DCE6802400252403134E00278C
:102B7000D3E5504620430700781E87410024BF1844
:102B800060E70C0017008DE50C0017000B4E89E57F
:102B90001E002700203EF740202B0CD04026F31AC1
:102BA0009C4050462043441EA04107430024BF18C8
:102BB00048E70024D0E70024F3E7C046FF07000001
:102BC000FFFF7FFF70B50E4E0D031C0349005B0035
:102BD0002D0B490D240B5B0DB14204D00849002098
:102BE0008B4208D070BD05430120002DFAD1044965
:102BF00000208B42F6D114432000441EA041F1E78F
:102C0000FF07000030B5134D0A034B00120B5B0D9C
:102C1000C90F0024AB4210DD0F4CA3420FDC80240F
:102C20000E4D64032243ED1A1F2D0BDD0C48C31A11
:102C3000DA405442002900D11400200030BD094B75
:102C4000CC18FAE7084CE840A44663449A40024393
:102C5000EFE7C046FE0300001D040000330400003F
:102C600013040000FFFFFF7FEDFBFFFF70B500289E
:102C700030D0C317C4185C40C50F200000F0FAF82C
:102C8000174B184A1B1AD21A1F2A18DD164AD21AD5
:102C90009440002224035B05240B5B0D00211000EF
:102CA00024030A0D240B12052243104C1B0522405D
:102CB00013435B00ED075B082B43190070BD210037
:102CC00091400A000B21081AC4405B052403240B21
:102CD0005B0DE3E70025002300240022DEE7C04669
:102CE0001E0400003304000013040000FFFF0F80E7
:102CF00010B5041E28D000F0BDF8154B154A1B1A5C
:102D0000D21A1F2A15DD144AD21A94400022240335
:102D10005B05240B5B0D0021100024030A0D240B1E
:102D2000120522430D4C1B05224013435B0059083A
:102D300010BD210091400A000B21081AC4405B0518
:102D40002403240B5B0DE6E7002300240022E2E7C6
:102D50001E0400003304000013040000FFFF0F8076
:102D6000F0B54C00640D0B03621C450F5B0A520565
:102D70002B43C90FC500520D012A28DD3A4AA61877
:102D8000FE2E1BDC002E3EDD80010200501E824123
:102D90006D0F2A43DB0013435A0704D00F221A4059
:102DA000042A00D004338022D2041A405AD00136BB
:102DB000FF2E03D09B015B0AF4B201E0FF24002345
:102DC0005802E405400AC90720430843F0BD002C1F
:102DD00007D01D43F2D08020DB0080040343FF2690
:102DE000DAE72B4303D00523DB08FF2C03D05B027B
:102DF0005B0AE4B2E4E7002B32D08020C003034337
:102E00005B025B0ADCE73200173214DB80221E27EC
:102E100012041343BF1B1F2F0FDC144A9446644453
:102E20002A00A5402E00A340751EAE41FA40334350
:102E300013430026B0E70024D5E702225242961B36
:102E40001A00F240202F09D0094884466444A34068
:102E50002B435D1EAB41002613439DE70023F7E79C
:102E60000023ADE73400BFE780FCFFFF82FCFFFFDB
:102E7000A2FCFFFF1C2101231B04984201D3000C7C
:102E800010391B0A984201D3000A08391B099842DD
:102E900001D30009043902A2105C40187047C046F3
:102EA0000403020201010101000000000000000013
:102EB00010B5002903D1FFF7DDFF203002E0081C28
:102EC000FFF7D8FF10BDC04680B582B000AFFB1D34
:102ED00000221A700B4B0B4A126840210A431A60F9
:102EE000002000F011F8031E03D0FB1D01221A7010
:102EF00001E003F021FEFB1D1B781800BD4602B067
:102F000080BDC0460020024080B584B000AF78602C
:102F10000F23FB1800221A700F4B1A68FA2399002E
:102F20001000FDF703F90300180000F0FBF8031E82
:102F300004D00F23FB1801221A7006E079680123E0
:102F40005B420022180000F0C7F80F23FB181B7823
:102F50001800BD4604B080BD0000002080B500AF61
:102F6000034B1B685A1C024B1A60C046BD4680BD0D
:102F7000C806002080B500AF024B1B681800BD4694
:102F800080BDC046C806002080B582B000AF0200F8
:102F9000FB1D1A70064BFA1D127811001F220A4001
:102FA000012191400A001A60C046BD4602B080BDB2
:102FB00000E100E0B0B582B000AF02003960FB1D57
:102FC0001A70FB1D1B787F2B32D92F4CFB1D1B78F1
:102FD0001A000F231340083B99082B4AFB1D1B784E
:102FE00018000F230340083B9B0806339B00D318AF
:102FF00004331B68FA1D1278100003220240D2002D
:10300000FF2090400200D2431A403B689B01FF2002
:103010001840FB1D1B781D0003232B40DB0098404C
:1030200003001A438B1D9B00E31804331A6027E04A
:10303000164CFB1D1B785BB29B081449FA1D1278D5
:1030400052B29208C03292005258F91D0978080015
:1030500003210140C900FF2088400100C9431140FD
:103060003A689201FF201040FA1D127815000322E1
:103070002A40D200904002000A43C0339B001A51FC
:10308000C046BD4602B0B0BD00ED00E000E100E08A
:1030900080B582B000AF78607B68013B0C4A9342F8
:1030A00001D9012310E00B4B7A68013A5A600123E1
:1030B0005B4203211800FFF77DFF064B00229A6058
:1030C000044B07221A6000231800BD4602B080BDE1
:1030D000FFFFFF0010E000E080B584B000AFB960F2
:1030E0007A600F23FB18021C1A70BA680F23FB18B2
:1030F0001B785BB211001800FFF75CFFC046BD46AD
:1031000004B080BD80B582B000AF0200FB1D1A7014
:10311000FB1D1B785BB21800FFF736FFC046BD46AB
:1031200002B080BD80B582B000AF78607B681800C7
:10313000FFF7AEFF03001800BD4602B080BD0000DF
:1031400090B585B000AF78607B68002B01D101237A
:1031500062E07B681B68324A94466344142118007D
:10316000FCF7E4FF03009A007B685A647B682D4AF1
:103170001A647B682522022199547B681B681B68AE
:10318000FB60FB68284A1340FB607B689A687B6899
:10319000DB681A437B681B691A437B685B691A43C7
:1031A0007B689B691A437B68DB691A437B681B6AEF
:1031B0001343FA681343FB607B681B68FA681A6064
:1031C0007B689A688023DB019A4219D0174A174B13
:1031D00019687B685B6C1C2003400F20984003003B
:1031E000DB430B401360114A104B19687B68586829
:1031F0007B685B6C1C242340984003000B431360E6
:103200007B680022DA637B682522012199547B6860
:1032100024220021995400231800BD4605B090BD1A
:10322000F8FFFDBF000002400F80FFFFA800024032
:1032300080B586B000AFF860B9607A603B60172354
:10324000FB1800221A70FB6824229B5C012B01D121
:1032500002234FE0FB68242201219954FB682522B8
:103260009B5CDBB2012B3AD1FB68252202219954E9
:10327000FB680022DA63FB681B68FA681268126850
:1032800001218A431A603B687A68B968F86800F0DF
:1032900075F9FB681B6B002B08D0FB681B68FA688C
:1032A000126812680E210A431A600FE0FB681B685F
:1032B000FA681268126804218A431A60FB681B6866
:1032C000FA68126812680A210A431A60FB681B68D0
:1032D000FA681268126801210A431A6007E0FB6865
:1032E0002422002199541723FB1802221A70172355
:1032F000FB181B781800BD4606B080BD80B584B0B1
:1033000000AF78600F23FB1800221A707B6825221B
:103310009B5CDBB2022B08D07B680422DA637B68FB
:10332000242200219954012324E07B681B687A68D9
:10333000126812680E218A431A607B681B687A68DB
:103340001268126801218A431A607B681B6C7A68D4
:10335000526C1C210A40012191400A005A607B688E
:103360002522012199547B682422002199540F239E
:10337000FB181B781800BD4604B080BD80B584B032
:1033800000AF78600F23FB1800221A707B6825229B
:103390009B5CDBB2022B07D07B680422DA630F232D
:1033A000FB1801221A702AE07B681B687A68126891
:1033B00012680E218A431A607B681B687A6812685B
:1033C000126801218A431A607B681B6C7A68526C10
:1033D0001C210A40012191400A005A607B68252285
:1033E000012199547B682422002199547B689B6BAE
:1033F000002B04D07B689B6B7A68100098470F23E2
:10340000FB181B781800BD4604B080BD80B584B0A1
:1034100000AF78607B681B6C1B68FB607B681B6877
:103420001B68BB607B685B6C1C22134004229A40C3
:103430001300FA68134026D0BB680422134022D040
:103440007B681B681B682022134007D17B681B68C0
:103450007A681268126804218A431A607B681B6CC0
:103460007A68526C1C210A40042191400A005A607B
:103470007B681B6B002B00D171E07B681B6B7A684B
:10348000100098476BE07B685B6C1C2213400222A3
:103490009A401300FA6813402DD0BB6802221340F3
:1034A00029D07B681B681B68202213400BD17B68E6
:1034B0001B687A68126812680A218A431A607B685E
:1034C0002522012199547B681B6C7A68526C1C215F
:1034D0000A40022191400A005A607B6824220021A0
:1034E00099547B68DB6A002B39D07B68DB6A7A6889
:1034F0001000984733E07B685B6C1C221340082265
:103500009A401300FA6813402AD0BB68082213407F
:1035100026D07B681B687A68126812680E218A437D
:103520001A607B681B6C7A68526C1C210A4001216E
:1035300091400A005A607B680122DA637B68252289
:10354000012199547B682422002199547B685B6B8C
:10355000002B05D07B685B6B7A6810009847C046EB
:10356000C046BD4604B080BD80B582B000AF786073
:103570007B68DB6B1800BD4602B080BD80B584B0AF
:1035800000AFF860B9607A603B60FB681B6CFA685A
:10359000526C1C210A40012191400A005A60FB68CC
:1035A0001B683A685A60FB689B68102B08D1FB685F
:1035B0001B687A689A60FB681B68BA68DA6007E083
:1035C000FB681B68BA689A60FB681B687A68DA60F7
:1035D000C046BD4604B080BD80B586B000AF7860FF
:1035E000396000237B610023FB6000233B6155E1D0
:1035F0003B681B6801217A6991400A001340FB6017
:10360000FB68002B00D146E13B685B68022B03D0CE
:103610003B685B68122B23D17B69DA087B68083230
:103620009200D3583B617B69072213409B000F2215
:103630009A401300DA433B6913403B613B681A69C7
:103640007B6907210B409B009A4013003A691343A2
:103650003B617B69DA087B68083292003969D15096
:103660003B685B68012B0BD03B685B68022B07D083
:103670003B685B68112B03D03B685B68122B30D131
:103680007B689B683B617B695B0003229A40130067
:10369000DA433B6913403B613B68DA687B695B0056
:1036A0009A4013003A6913433B617B683A699A6018
:1036B0007B685B683B6101227B699A401300DA43B7
:1036C0003B6913403B613B685B681B0901221A4060
:1036D0007B699A4013003A6913433B617B683A69FE
:1036E0005A607B681B683B617B695B0003229A40E0
:1036F0001300DA433B6913403B613B685B6803227C
:103700001A407B695B009A4013003A6913433B619E
:103710007B683A691A607B68DB683B617B695B00A8
:1037200003229A401300DA433B6913403B613B6834
:103730009A687B695B009A4013003A6913433B61C6
:103740007B683A69DA603B685A6880235B051340FE
:1037500000D1A0E0574B574A526B01210A435A63EC
:10376000554A7B699B0802339B009B583B617B69F0
:10377000032213409B000F229A401300DA433B6957
:1037800013403B617A68A023DB059A421FD07B6817
:103790004A4A934219D07B68494A934213D07B68C6
:1037A000484A93420DD07B68474A934207D07B68D2
:1037B000464A934201D105230AE0062308E0042388
:1037C00006E0032304E0022302E0012300E00023DB
:1037D0007A6903210A40920093403A6913433B619E
:1037E00035497B699B0802339B003A695A50384B34
:1037F0001B683B61FB68DA433B6913403B613B68F4
:103800005A6880235B02134003D03A69FB68134374
:103810003B612F4B3A691A602D4B5B683B61FB683B
:10382000DA433B6913403B613B685A6880239B0243
:10383000134003D03A69FB6813433B61244B3A6958
:103840005A60234B9B683B61FB68DA433B6913403A
:103850003B613B685A6880235B03134003D03A699D
:10386000FB6813433B611A4B3A699A60184BDB685B
:103870003B61FB68DA433B6913403B613B685A6834
:1038800080239B03134003D03A69FB6813433B61D9
:103890000F4B3A69DA607B6901337B613B681A68D8
:1038A0007B69DA40131E00D0A2E6C046BD4606B0D2
:1038B00080BDC046001002400000014000040050DE
:1038C00000080050000C005000100050001C005078
:1038D0000004014080B582B000AF7860080011009C
:1038E000BB1C021C1A807B1C0A1C1A707B1C1B78D8
:1038F000002B04D0BB1C1A887B689A6103E0BB1CB8
:103900001A887B689A62C046BD4602B080BD00003E
:1039100080B582B000AF0200BB1D1A80094B5B6905
:10392000BA1D1288134008D0064BBA1D12885A617E
:10393000BB1D1B88180000F007F8C046BD4602B04A
:1039400080BDC0460004014080B582B000AF0200D7
:10395000BB1D1A80C046BD4602B080BD90B58BB07D
:1039600000AF78607B68002B02D1012300F0B8FB28
:10397000C74BDB680C221340FB61C54BDA68802320
:103980005B021340BB617B681B680122134000D1BE
:103990007EE0FB69082B07D0FB690C2B12D1BA69BA
:1039A00080235B029A420DD1B94B1A6880239B0297
:1039B000134000D16BE07B685B68002B67D101236B
:1039C00000F08EFB7B685A6880235B029A4207D125
:1039D000AF4BAF4A1268802149020A431A6027E0C0
:1039E0007B685A68A023DB029A420ED1A84BA84AF2
:1039F00012688021C9020A431A60A54BA44A1268C2
:103A0000802149020A431A6012E0A14BA04A1268C1
:103A1000A0490A401A609E4B1A6880235B0213403B
:103A2000FB60FB689A4B9A4A12689B490A401A60ED
:103A30007B685B68002B15D0FFF79CFA03007B6165
:103A400009E0FFF797FA02007B69D31A642B02D9C9
:103A5000032300F045FB8E4B1A6880239B02134022
:103A6000EFD015E0FFF786FA03007B6108E0FFF76F
:103A700081FA02007B69D31A642B01D903232FE357
:103A8000834B1A6880239B021340F0D100E0C046AC
:103A90007B681B680222134000D197E07B68DB68DB
:103AA0007B627B6A2022134009D0794B784A1268E6
:103AB00020210A431A607B6A202293437B62FB69C0
:103AC000042B05D0FB690C2B3DD1BB69002B3AD1EF
:103AD0006F4B1B680422134004D07B6A002B01D17A
:103AE0000123FDE26A4A6A4B5B686C4919407B68B6
:103AF0001B691B020B435360654B654A1268092121
:103B00008A4311007A6A0A431A6000F01DFC010022
:103B10005F4BDB681B090F221340614AD35C0A002C
:103B2000DA40604B1A601323FC180020FFF7ECF911
:103B3000030023701323FB181B78002B46D013239C
:103B4000FB181B78CCE27B6A002B26D0504B504AE6
:103B5000126809218A4311007A6A0A431A60FFF742
:103B600009FA03007B6108E0FFF704FA02007B69B1
:103B7000D31A022B01D90323B2E2454B1B6804225E
:103B80001340F1D0424A424B5B68444919407B687C
:103B90001B691B020B43536018E03D4B3C4A126803
:103BA00001218A431A60FFF7E5F903007B6108E011
:103BB000FFF7E0F902007B69D31A022B01D9032336
:103BC0008EE2334B1B6804221340F1D17B681B68E3
:103BD0001022134000D19DE0FB69002B3FD12C4BFC
:103BE0001A6880239B00134005D07B68DB69002B9B
:103BF00001D1012374E2264A254B5B682A4919400A
:103C00007B685B6A0B435360214A214B5B681B0254
:103C1000190A7B681B6A1B060B4353607B685B6A4F
:103C20005B0B0133802212029A40194BDB681B099F
:103C30000F210B401A49CB5CDA401A4B1A60132350
:103C4000FC180020FFF760F9030023701323FB1812
:103C50001B78002B5ED01323FB181B7840E27B6897
:103C6000DB69002B3CD00A4B094A126880214900CD
:103C70000A431A60FFF77EF903007B6116E0FFF745
:103C800079F902007B69D31A022B0FD9032327E2AB
:103C900000100240FFFFFEFFFFFFFBFFFFE0FFFF02
:103CA0009497000800000020FF1FFFFFCA4B1A680E
:103CB00080239B001340E2D0C74AC74B5B68C749CB
:103CC00019407B685B6A0B435360C34AC24B5B6815
:103CD0001B02190A7B681B6A1B060B43536019E021
:103CE000BD4BBD4A1268BE490A401A60FFF742F94F
:103CF00003007B6108E0FFF73DF902007B69D31AFE
:103D0000022B01D90323EBE1B34B1A6880239B00FC
:103D10001340F0D17B681B680822134036D07B68C3
:103D20005B69002B19D0AC4BAB4A126D01210A43E1
:103D30001A65FFF71FF903007B6108E0FFF71AF926
:103D400002007B69D31A022B01D90323C8E1A24BDD
:103D50001B6D02221340F1D018E09F4B9E4A126D5A
:103D600001218A431A65FFF705F903007B6108E02A
:103D7000FFF700F902007B69D31A022B01D9032354
:103D8000AEE1954B1B6D02221340F1D17B681B689D
:103D90000422134000D1AFE02323FB1800221A7045
:103DA0008D4B9A6B80235B0513400AD18A4B8A4A5C
:103DB000926B802149050A439A632323FB18012251
:103DC0001A70884B1A6880235B0013401AD1854B08
:103DD000844A1268802149000A431A60FFF7CAF832
:103DE00003007B6108E0FFF7C5F802007B69D31A86
:103DF000642B01D9032373E17A4B1A6880235B009B
:103E00001340F0D07B689A6880235B009A4207D108
:103E1000714B714A126D802149000A431A6531E0E5
:103E20007B689B68002B0CD16B4B6B4A126D6C4905
:103E30000A401A65684B684A126D6B490A401A6558
:103E400020E07B689A68A023DB009A420ED1624B87
:103E5000614A126D8021C9000A431A655E4B5E4AB1
:103E6000126D802149000A431A650BE05A4B5A4AE9
:103E7000126D5B490A401A65574B574A126D5A49F1
:103E80000A401A657B689B68002B15D0FFF772F813
:103E900003007B6109E0FFF76DF802007B69D31A2C
:103EA000524A934201D903231AE14B4B1A6D8023E6
:103EB0009B001340EFD014E0FFF75CF803007B6138
:103EC00009E0FFF757F802007B69D31A474A93428B
:103ED00001D9032304E1404B1A6D80239B0013405A
:103EE000EFD12323FB181B78012B05D13A4B3A4A1B
:103EF000926B3F490A409A637B681B6820221340FB
:103F000049D07B689B69002B26D0334B324A92689C
:103F100001210A439A60304B2F4A526B01210A4318
:103F20005A63344B334A126A802189010A431A6268
:103F3000FFF720F803007B6108E0FFF71BF80200A1
:103F40007B69D31A022B01D90323C9E0224B9B685A
:103F500002221340F1D01EE01F4B1F4A926801213C
:103F60008A439A60234B234A126A23490A401A6201
:103F7000FFF700F803007B6108E0FEF7FBFF02009B
:103F80007B69D31A022B01D90323A9E0124B9B684A
:103F900002221340F1D17B689B6A002B00D19EE086
:103FA000FB690C2B00D177E07B689B6A022B58D110
:103FB000094B094A126811490A401A60FEF7DAFFF4
:103FC00003007B611CE0FEF7D5FF02007B69D31A7A
:103FD000022B15D9032383E000100240FF1FFFFFCF
:103FE000FFFEFFFF00700040FFFBFFFF8813000093
:103FF000FFFFFFEF00000140FFDFFFFFFFFFFFFEBD
:10400000394B1A6880239B041340DCD1364A364B67
:10401000DB68364919407B68D86A7B681B6B18439C
:104020007B685B6B03430B43D3602F4B2E4A1268B4
:10403000802149040A431A60FEF79CFF03007B615C
:1040400008E0FEF797FF02007B69D31A022B01D923
:10405000032345E0244B1A6880239B041340F0D0CF
:104060003DE0214B204A126821490A401A60FEF7C0
:1040700081FF03007B6108E0FEF77CFF02007B69A3
:10408000D31A022B01D903232AE0174B1A68802385
:104090009B041340F0D122E07B689B6A012B01D185
:1040A00001231DE0104BDB68BB61BA6980235B0212
:1040B0001A407B68DB6A9A420FD1BA69F0239B03EE
:1040C0001A407B681B6B9A4207D1BA69C0231B0454
:1040D0001A407B685B6B9A4201D0012300E0002309
:1040E0001800BD460BB090BD00100240FFFF02FF5C
:1040F000FFFFFFFE90B585B000AF786039607B6848
:10410000002B01D101230CE1884B1B6801221A40CE
:104110003B689A4211D2854B844A126801218A4336
:1041200011003A680A431A60804B1B6801221A404A
:104130003B689A4201D00123F3E07B681B680222AE
:10414000134009D07A4A7A4BDB68F0218B4319007F
:104150007B689B680B43D3607B681B68012213401C
:1041600000D189E07B685B68022B07D1704B1A682D
:1041700080239B02134020D10123D2E07B685B683F
:10418000032B07D16A4B1A6880239B04134014D178
:104190000123C6E07B685B68012B06D1644B1B687A
:1041A0000422134009D10123BBE0614B1A6880232C
:1041B0009B00134001D10123B3E05D4A5C4BDB68F7
:1041C00003218B4319007B685B680B43D360FEF7C8
:1041D000D1FE0300FB607B685B68022B11D109E014
:1041E000FEF7C8FE0200FB68D31A524A934201D977
:1041F000032396E04E4BDB680C221340082BEFD1D3
:104200003AE07B685B68032B11D109E0FEF7B2FE50
:104210000200FB68D31A474A934201D9032380E086
:10422000434BDB680C2213400C2BEFD124E07B685E
:104230005B68012B1BD109E0FEF79CFE0200FB68C6
:10424000D31A3C4A934201D903236AE0384BDB6816
:104250000C221340042BEFD10EE0FEF78BFE020080
:10426000FB68D31A334A934201D9032359E0304BF8
:10427000DB680C221340F0D12C4B1B6801221A4042
:104280003B689A4211D9294B284A126801218A4376
:1042900011003A680A431A60244B1B6801221A4035
:1042A0003B689A4201D001233BE07B681B680422F3
:1042B000134008D01E4A1E4BDB681F4919407B681B
:1042C000DB680B43D3607B681B680822134009D06E
:1042D000174A174BDB68194919407B681B69DB00DB
:1042E0000B43D36000F030F80100114BDB681B0971
:1042F0000F221340124AD35C0A00DA40114B1A60B5
:104300000B23FC180020FEF7FFFD030023700B2396
:10431000FB181B78002B03D00B23FB181B7800E045
:1043200000231800BD4605B090BDC04600200240E5
:104330000010024088130000FFF8FFFFFFC7FFFFD7
:10434000949700080000002080B586B000AF324B83
:10435000DB68FB60FB680C221340082B0ED00C2B93
:104360000FD0042B45D12C4B1B681022134002D0D8
:104370002A4B3B614BE02A4B3B6148E0294B3B61B8
:1043800045E0FB689B0C0F221340274AD35CBB60BF
:10439000FB689B0D0322134001337B601E4BDA68E0
:1043A00080235B02134009D0BB681E4A53437968DF
:1043B0001800FBF7BBFE03007B6117E0164B1B6880
:1043C0001022134009D0BB68144A5343796818007F
:1043D000FBF7ACFE03007B6108E0BB68104A534367
:1043E00079681800FBF7A2FE03007B617B693B61E3
:1043F0000DE0094B5B685B0B072213403B603B6899
:104400000133802212029A4013003B61C0463B698F
:104410001800BD4606B080BD0010024000093D00F6
:104420000024F40000127A00AC97000880B500AFB9
:10443000024B1B681800BD4680BDC046000000202E
:1044400080B500AFFFF7F2FF0100064BDB681B0AE7
:1044500007221340044AD35CD9400B001800BD4624
:1044600080BDC04600100240A497000880B500AF90
:10447000FFF7DCFF0100064BDB68DB0A0722134075
:10448000044AD35CD9400B001800BD4680BDC0462D
:1044900000100240A497000880B586B000AF786095
:1044A0007B681B682022134000D1C6E01723FB184D
:1044B00000221A70964B9A6B80235B0513400AD139
:1044C000934B934A926B802149050A439A631723C1
:1044D000FB1801221A708F4B1A6880235B0013406F
:1044E0001AD18C4B8B4A1268802149000A431A600A
:1044F000FEF740FD03003B6108E0FEF73BFD0200D4
:104500003B69D31A642B01D90323FCE0814B1A6861
:1045100080235B001340F0D07D4B1A68C0239B03BF
:104520001340FB607B685A68C0239B031A40FB68FA
:104530009A4213D07B685A68C0239B021A40C0235A
:104540009B029A420AD1724B1A6880239B021A403E
:1045500080239B029A4201D10123D4E06C4B1A6D57
:10456000C0239B021340FB60FB68002B3BD07B68A1
:104570005A68C0239B021A40FB689A4233D07B687A
:104580001B68202213402ED0614B1B6D624A1340E2
:10459000FB605F4B5E4A126D802109030A431A6576
:1045A0005B4B5B4A126D5D490A401A65584BFA68CD
:1045B0001A65FA6880235B00134014D0FEF7DAFC1A
:1045C00003003B6109E0FEF7D5FC02003B69D31A0A
:1045D000534A934201D9032395E04D4B1A6D802332
:1045E0009B001340EFD07B685A68C0239B021A409F
:1045F000C0239B029A420BD1454A454B1B6849494F
:1046000019407B685868C0239B0303400B43136029
:104610003F4A3F4B196D7B685868C0239B0203409B
:104620000B4313651723FB181B78012B05D1384B5F
:10463000374A926B3C490A409A637B681B680122A7
:10464000134009D0324A324BDB6C03218B431900F3
:104650007B689B680B43D3647B681B680222134012
:1046600009D02B4A2A4BDB6C0C218B4319007B6849
:10467000DB680B43D3647B681B680422134008D0BB
:10468000234A234BDB6C294919407B681B690B4388
:10469000D3647B681B680822134008D01C4A1C4B5B
:1046A000DB6C234919407B685B690B43D3647B68EF
:1046B0001A6880235B00134008D0154A144BDB6C4A
:1046C000154919407B689B690B43D3647B681B6861
:1046D0004022134008D00E4A0D4BDB6C154919409F
:1046E0007B681B6A0B43D3647B681B688022134082
:1046F00008D0074A064BDB6C0F4919407B68DB6921
:104700000B43D36400231800BD4606B080BDC046ED
:104710000010024000700040FFFFFCFFFFFFF7FFAA
:1047200088130000FFFFCFFFFFFFFFEFFFF3FFFF46
:10473000FFCFFFFFFFFFFFFBFFFFF3FF80B582B05E
:1047400000AF78607B68002B01D101238EE07B688D
:1047500021229B5CDBB2002B07D17B682022002149
:1047600099547B68180002F0FBF97B682122022132
:1047700099547B681B68CA225A627B681B68532263
:104780005A627B68180000F0B2FB031E09D07B68F8
:104790001B68FF225A627B6821220421995401235D
:1047A00064E07B681B687A681268926831490A4045
:1047B0009A607B681B687A68126891687A685068AA
:1047C0007A68126910437A68926902430A439A60D0
:1047D0007B681B687A68D2681A617B681B687A6894
:1047E000126811697A68926812040A431A617B6838
:1047F0001B687A681268D26880218A43DA607B6815
:104800001B687A681268D26C03218A43DA647B6879
:104810001B687A681268D16C7A68D0697A685269C4
:1048200002430A43DA647B681B689B6820221340BA
:1048300013D17B68180000F033FB031E0DD07B689A
:104840001B68FF225A627B682122042199547B68ED
:10485000202200219954012308E07B681B68FF2275
:104860005A627B6821220121995400231800BD4619
:1048700002B080BDBFFF8FFF90B587B000AFF8607A
:10488000B9607A60FB6820229B5C012B01D1022376
:10489000ADE0FB68202201219954FB68212202210E
:1048A00099547B68002B25D1FB681B689B684022CC
:1048B000134002D1BB680022DA70BB681B78180075
:1048C00000F03FFB03001C04BB685B78180000F09D
:1048D00038FB03001B021C43BB689B78180000F0E8
:1048E00030FB030022001A43BB68DB781B04134330
:1048F0007B6117E0FB681B689B684022134002D174
:10490000BB680022DA70BB681B781A04BB685B784E
:104910001B021343BA6892781A43BB68DB781B0406
:1049200013437B61FB681B68CA225A62FB681B68E1
:1049300053225A62FB68180000F0D9FA031E0DD00A
:10494000FB681B68FF225A62FB68212204219954EC
:10495000FB68202200219954012348E0FB681B6872
:104960007A6925490A401A60FB681B68FA68126870
:10497000926822490A409A60FB681B68FA681268CC
:104980009168BA68D068BA68126902430A439A60AB
:10499000FB681B68FA681268D26880218A43DA6073
:1049A000FB681B689B682022134013D1FB6818002A
:1049B00000F076FA031E0DD0FB681B68FF225A62D6
:1049C000FB68212204219954FB682022002199547C
:1049D00001230CE0FB681B68FF225A62FB6821225E
:1049E00001219954FB6820220021995400231800CA
:1049F000BD4607B090BDC0467F7F7F00FFFFFBFF35
:104A000090B587B000AFF860B9607A60FB6820228B
:104A10009B5C012B01D1022399E0FB68202201213C
:104A20009954FB682122022199547B68002B0ED1F6
:104A3000BB685B781A001023134008D0BB685B7812
:104A400010229343DBB20A33DAB2BB685A707B6838
:104A5000002B1CD1BB68DB78180000F072FA030051
:104A60001C04BB685B78180000F06BFA03001B02A3
:104A70001C43BB689B78180000F063FA0300220017
:104A80001A43BB681B785B0313437B610EE0BB6872
:104A9000DB781A04BB685B781B021343BA68927810
:104AA0001A43BB681B785B0313437B61FB681B687D
:104AB000CA225A62FB681B6853225A62FB681800BC
:104AC00000F015FA031E0DD0FB681B68FF225A6226
:104AD000FB68212204219954FB682022002199546B
:104AE000012334E0FB681B687A691B490A405A605D
:104AF000FB681B68FA681268D26880218A43DA6012
:104B0000FB681B689B682022134013D1FB681800C8
:104B100000F0C6F9031E0DD0FB681B68FF225A6225
:104B2000FB68212204219954FB682022002199541A
:104B300001230CE0FB681B68FF225A62FB682122FC
:104B400001219954FB682022002199540023180068
:104B5000BD4607B090BDC0463FFFFF0090B589B08D
:104B600000AFF860B9607A60FB6820229B5C012B83
:104B700001D1022330E1FB68202201219954FB6816
:104B80002122022199547B68002B36D1FB681B68D7
:104B90009B684022134002D1BB680022DA70BB68D8
:104BA0001B78180000F0CDF903001C04BB685B788B
:104BB000180000F0C6F903001B021C43BB689B7879
:104BC000180000F0BEF9030022001A43BB68DB782E
:104BD0001B041A431400BB6820229B5C180000F0E1
:104BE000B0F903001B0622001A43BB68DB691A43B5
:104BF000BB685B691343FB6122E0FB681B689B6831
:104C00004022134002D1BB680022DA70BB681B78D7
:104C10001A04BB685B781B021343BA6892781A4384
:104C2000BB68DB781B041A43BB6820215B5C1B0656
:104C30001A43BB68DB691A43BB685B691343FB61BA
:104C4000BB685A68BB689B691343BB61FB681B6800
:104C5000CA225A62FB681B6853225A62BB685A6AAE
:104C600080235B009A424ED1FB681B68FA68126889
:104C700092685B490A409A60FB681B68FA68126890
:104C8000D268FF210A4057490A43DA60FEF772F9F9
:104C900003007B6116E0FEF76DF902007B69D21A12
:104CA000FA239B009A420DD9FB681B68FF225A62C7
:104CB000FB68212203219954FB682022002199548A
:104CC000032389E0FB681B68DB6801221340E2D004
:104CD000FB681B68FA69DA61FB681B68BA695A6489
:104CE000FB681B68FA6812689268802149000A43D1
:104CF0009A60FB681B68FA68126892688021490113
:104D00000A439A604DE0FB681B68FA681268926873
:104D100035490A409A60FB681B68FA681268D268D5
:104D2000FF210A4031490A43DA60FEF723F9030004
:104D30007B6116E0FEF71EF902007B69D21AFA23A6
:104D40009B009A420DD9FB681B68FF225A62FB68E0
:104D5000212203219954FB68202200219954032326
:104D60003AE0FB681B68DB6802221340E2D0FB6874
:104D70001B68FA691A62FB681B68BA699A64FB6867
:104D80001B68FA6812689268802189000A439A6059
:104D9000FB681B68FA6812689268802189010A43DF
:104DA0009A60134B124A1268802189020A431A60E2
:104DB0000F4B0F4A9268802189020A439A60FB6870
:104DC0001B68FF225A62FB68212201219954FB686B
:104DD00020220021995400231800BD4609B090BD3F
:104DE000FFFEFFFF7FFEFFFFFFFDFFFF7FFDFFFFD9
:104DF0000004014080B582B000AF78607B681B681A
:104E00009A6880235B01134014D07B681B68DA68C2
:104E100080235B0013400DD07B68180000F038F849
:104E20007B681B687A681268D268FF210A401549BE
:104E30000A43DA607B681B689A6880239B011340F1
:104E400014D07B681B68DA6880239B0013400DD068
:104E50007B68180000F09FF87B681B687A6812680E
:104E6000D268FF210A4008490A43DA60074B8022D2
:104E700092025A617B68212201219954C046BD46A5
:104E800002B080BD7FFEFFFF7FFDFFFF00040140F9
:104E900080B582B000AF7860C046BD4602B080BD2C
:104EA00080B584B000AF78607B681B687A68126850
:104EB000D268A0218A43DA60FEF75CF80300FB6049
:104EC0000AE0FEF757F80200FB68D21AFA239B00AB
:104ED0009A4201D9032306E07B681B68DB68202225
:104EE0001340EED000231800BD4604B080BD80B54D
:104EF00084B000AF78607B681B68DB684022134099
:104F00001AD17B681B6801225242DA60FEF732F840
:104F10000300FB600AE0FEF72DF80200FB68D21ADE
:104F2000FA239B009A4201D9032306E07B681B68A1
:104F3000DB6840221340EED000231800BD4604B0C9
:104F400080BD80B584B000AF0200FB1D1A70002345
:104F5000FB600B23FB18FA1D12781A7009E0FB683E
:104F60000133FB600B23FB180B22BA1812780A3AA4
:104F70001A700B23FB181B78092BF0D8FB68DBB2E7
:104F80001B01DAB20B23FB181B781343DBB21800AA
:104F9000BD4604B080BD80B582B000AF7860C04629
:104FA000BD4602B080BD000080B582B000AF786021
:104FB0007B68002B01D1012357E07B6800229A62B5
:104FC0007B6851229B5CDBB2002B07D17B685022AF
:104FD000002199547B68180001F0E2FD7B685122A2
:104FE000022199547B681B687A6812681268402114
:104FF0008A431A607B681B687A6851687A6892688D
:1050000011437A68D26811437A68126911437A6849
:10501000526911437A6890698022920002401143DC
:105020007A68D26911437A68126A11437A68926A7F
:105030000A431A607B681B687A689269120C042123
:1050400011407A68526A0A435A607B681B687A6822
:105050001268D26907490A40DA617B6800225A6502
:105060007B6851220121995400231800BD4602B0EB
:1050700080BDC046FFF7FFFF80B582B000AF78600B
:105080007B68002B01D1012344E07B685B6F002B20
:1050900007D17B687022002199547B68180001F0C9
:1050A00027FE7B6824225A677B681B687A6812682F
:1050B000126801218A431A607B68180000F010FB17
:1050C0000300012B01D1012324E07B685B6A002BE4
:1050D00003D07B68180000F03FFE7B681B687A688D
:1050E000126852680D490A405A607B681B687A68EA
:1050F000126892682A218A439A607B681B687A68E2
:105100001268126801210A431A607B68180000F0D7
:10511000CFFE03001800BD4602B080BDFFB7FFFF01
:1051200080B58AB002AFF860B9603B60BB1D1A80E1
:10513000FB685B6F202B00D093E0BB68002B03D093
:10514000BB1D1B88002B01D101238BE0FB689A68F3
:1051500080235B019A4209D1FB681B69002B05D1B2
:10516000BB680122134001D001237BE0FB68702261
:105170009B5C012B01D1022374E0FB6870220121AA
:105180009954FB680022DA67FB6821225A67FDF711
:10519000F1FE03007B61FB68BA1D502112885A5250
:1051A000FB68BA1D522112885A52FB689A68802304
:1051B0005B019A4208D1FB681B69002B04D10023D4
:1051C000FB61BB68BB6103E0BB68FB610023BB61A3
:1051D0002BE07A69F8683B68009313000022802175
:1051E00000F0ACFE031E01D003233BE0FB69002B63
:1051F0000AD1FB681B68BA691288D205D20D9A627F
:10520000BB690233BB6107E0FB681B68FA6912786F
:105210009A62FB690133FB61FB6852229B5A9BB285
:10522000013B99B2FB6852229952FB6852229B5A69
:105230009BB2002BCDD17A69F8683B6800931300CC
:105240000022402100F07AFE031E01D0032309E072
:10525000FB6820225A67FB687022002199540023C2
:1052600000E002231800BD4608B080BD80B584B0C0
:1052700000AFF860B960BB1D1A80FB689B6F202BE4
:1052800000D07FE0BB68002B03D0BB1D1B88002B28
:1052900001D1012377E0FB689A6880235B019A4281
:1052A00009D1FB681B69002B05D1BB6801221340A3
:1052B00001D0012367E0FB6870229B5C012B01D1C8
:1052C000022360E0FB68702201219954FB68BA68F0
:1052D0005A65FB68BA1D582112885A52FB68002291
:1052E000DA67FB6822229A67FB68DB6E002B2AD004
:1052F000FB68DB6E264ADA62FB68DB6E254A1A63BE
:10530000FB68DB6E244A5A63FB68DB6E00229A63FB
:10531000FB68D86EFB681B6824331900FB685B6D63
:105320001A00BB1D1B88FDF783FF031E0BD0FB6813
:105330001022DA67FB68702200219954FB68202252
:105340005A6701231FE0FB68702200219954FB6813
:105350001B68FA6812681268802149000A431A60C3
:10536000FB681B68FA681268926801210A439A6018
:10537000FB681B68FA681268926840210A439A60C9
:10538000002300E002231800BD4604B080BDC046E3
:1053900039600008A5600008C360000880B584B0CB
:1053A00000AF78607B685B6FFB607B689B6FBB6066
:1053B0007B681B689B6880221340802B26D1FB688A
:1053C000212B23D17B681B687A6812689268802140
:1053D0008A439A607B689B6E002B13D07B689B6E20
:1053E0001800FDF78BFF031E0CD07B689B6E180026
:1053F000FEF7BAF80300202B04D17B681022DA678D
:10540000032332E07B68180000F0E2FD7B681B6834
:105410009B6840221340402B26D1BB68222B23D10E
:105420007B681B687A681268926840218A439A6098
:105430007B68DB6E002B13D07B68DB6E1800FDF7FA
:105440005DFF031E0CD07B68DB6E1800FEF78CF846
:105450000300202B04D17B681022DA67032304E0C9
:105460007B68180000F0C8FD00231800BD4604B09A
:1054700080BD000080B588B000AF78607B681B6895
:10548000DB69FB617B681B681B68BB617B681B6811
:105490009B687B61FB690F2213403B613B69002BDA
:1054A00012D1FB69202213400ED0BB692022134089
:1054B0000AD07B681B6E002B00D1F6E07B681B6E68
:1054C0007A6810009847F0E03B69002B00D1B8E003
:1054D0007B690122134005D1BA6990235B00134018
:1054E00000D1AEE0FB69012213400ED0BA698023DF
:1054F0005B00134009D07B681B6801221A627B683D
:10550000DB6F01221A437B68DA67FB6902221340D2
:105510000DD07B690122134009D07B681B680222F1
:105520001A627B68DB6F04221A437B68DA67FB69C7
:10553000042213400DD07B690122134009D07B68FF
:105540001B6804221A627B68DB6F02221A437B68A5
:10555000DA67FB690822134011D0BB69202213408F
:1055600003D17B690122134009D07B681B680822A4
:105570001A627B68DB6F08221A437B68DA677B68F4
:10558000DB6F002B00D192E0FB69202213400CD08E
:10559000BB692022134008D07B681B6E002B04D00F
:1055A0007B681B6E7A68100098477B68DB6FFB6036
:1055B0007B681B689B6840221340402B03D0FB682C
:1055C0000822134033D07B68180000F015FD7B687B
:1055D0001B689B6840221340402B23D17B681B68CB
:1055E0007A681268926840218A439A607B68DB6E11
:1055F000002B12D07B68DB6E304A9A637B68DB6ECF
:105600001800FDF7BBFE031E19D07B68DB6E9A6B9A
:105610007B68DB6E1800904711E07B68180000F093
:1056200057F80CE07B68180000F052F807E07B6840
:10563000180000F04DF87B680022DA6737E0C046BA
:1056400035E0FA6980235B0313400ED07A6980232A
:10565000DB03134009D07B681B68802252031A6267
:105660007B68180000F09DFD24E0FB698022134058
:105670000DD0BB698022134009D07B685B6E002B84
:1056800017D07B685B6E7A681000984711E0FB6961
:10569000402213400ED0BB69402213400AD07B68E1
:1056A000180000F064FDC04604E0C04602E0C046B9
:1056B00000E0C046BD4608B080BDC046416100085C
:1056C00080B582B000AF7860C046BD4602B080BDF4
:1056D00080B582B000AF7860C046BD4602B080BDE4
:1056E000B0B58EB000AFF8611B2318229446BC44BD
:1056F000634410221A700023FB621323182294467D
:10570000BC44634400221A7000237B62FB699A68E0
:10571000FB691B691A43FB695B691A43FB69DB6917
:1057200013437B63FB691B68FA6912681268C849F6
:1057300011407A6B0A431A60FB691B68FA691268A8
:105740005268C4491140FA69D2680A435A60FB6939
:105750009B697B63FB691B68BF4A934204D0FB696A
:105760001B6A7A6B13437B63FB691B68FA691268D7
:105770009268BA4911407A6B0A439A60FB691B68C8
:10578000B74A934234D1B74BDB6C03221340012B51
:1057900015D004D3022B0AD0032B18D01FE01B23F3
:1057A00018229446BC44634401221A70C5E01B23AE
:1057B00018229446BC44634402221A70BDE01B23A5
:1057C00018229446BC44634404221A70B5E01B239B
:1057D00018229446BC44634408221A70ADE01B238F
:1057E00018229446BC44634410221A70C046A4E0B8
:1057F000FB691B689C4A934237D19A4BDB6C0C22A5
:105800001340042B18D002D8002B05D024E0082B1D
:105810000AD00C2B18D01FE01B2318229446BC443E
:10582000634400221A7088E01B2318229446BC446B
:10583000634402221A7080E01B2318229446BC4461
:10584000634404221A7078E01B2318229446BC4457
:10585000634408221A7070E01B2318229446BC444B
:10586000634410221A70C04667E0FB691B687F4AD8
:10587000934207D11B2318229446BC446344002260
:105880001A705AE0FB691B68794A934207D11B23BF
:1058900018229446BC44634400221A704DE0FB6910
:1058A0001B686D4A934241D16E4BDA6CC0231B01D9
:1058B00013408022D20093421FD08022D200934214
:1058C00002D8002B09D028E08022120193420CD08C
:1058D000C0221201934218D01FE01B2318229446C5
:1058E000BC44634400221A7027E01B23182294460C
:1058F000BC44634402221A701FE01B231822944602
:10590000BC44634404221A7017E01B2318229446F7
:10591000BC44634408221A700FE01B2318229446EB
:10592000BC44634410221A70C04606E01B231822B0
:105930009446BC44634410221A70FB691B68464AB3
:10594000934200D09EE01B2318229446BC4463443B
:105950001B78022B0DD002DC002B05D01DE0042BA0
:1059600012D0082B15D018E0FEF76AFD03007B6209
:105970001BE03C4B1B681022134002D03D4B7B6266
:1059800013E03D4B7B6210E0FEF7DEFC03007B6220
:105990000BE080231B027B6207E01323182294464E
:1059A000BC44634401221A70C0467B6A002B00D1BC
:1059B000B1E1FB695A6813005B009A187B6A9A424E
:1059C00005D8FB695B681A037B6A9A4207D21323E6
:1059D00018229446BC44634401221A709BE17B6AFE
:1059E0003B6100237B6139697A690B001B0E100053
:1059F00005021D430B001C02FB695B685B08BB6072
:105A00000023FB60B868F96800196941FB695B68AD
:105A10003B6000237B603A687B68FAF775FD030002
:105A20000C00FB62FB6A154A934208D9FB6A144AD0
:105A3000934204D8FB691B68FA6ADA606BE11323AE
:105A400018229446BC44634401221A7063E1C046A4
:105A5000F369FFEFFFCFFFFF00480040FFF4FFFFB7
:105A6000003801400010024000440040004C00405B
:105A70000050004000093D000024F400FF02000037
:105A8000FFFF0F00FB69DA6980231B029A4200D0F6
:105A9000B3E01B2318229446BC4463441B78082BB4
:105AA0006DD89A00A44BD3181B689F46FEF7C8FC1C
:105AB00003005A00FB695B685B08D218FB695B68EE
:105AC00019001000FAF732FB03009BB2FB625EE0A4
:105AD000FEF7CCFC03005A00FB695B685B08D21838
